:020000040800F2
:10000000000008240D3500088532000887320008FA
:10001000893200088B3200088D3200080000000091
:1000200000000000000000000000000021C50008E2
:100030008F32000800000000B1C5000827A90008A1
:100040005D3500085D3500085D3500085D35000848
:100050005D3500085D3500085D3500085D35000838
:100060005D3500085D3500085D35000891320008F7
:100070009D320008A9320008B5320008C1320008DC
:10008000CD320008D93200085D350008E53200089D
:10009000F13200085D3500085D3500085D35000867
:1000A0005D3500085D3500085D3500085D350008E8
:1000B0005D3500085D350008FD3200080933000891
:1000C0005D3500085D3500085D3500085D350008C8
:1000D0005D35000815330008213300082D33000872
:1000E0005D3500085D350008000000005D35000842
:1000F0005D3500085D3500085D35000839330008BE
:100100005D35000845330008513300085D350008AF
:100110005D3300085D3500085D3500085D35000879
:100120006933000875330008813300088D330008F7
:10013000993300085D3500085D3500085D3500081D
:1001400000000000000000000000000000000000AF
:10015000A5330008B1330008BD330008C9330008D7
:100160005D3500085D3500085D3500085D35000827
:100170005D3500085D3500085D3500085D35000817
:100180005D3500085D350008D5330008E13300080F
:100190005D3500085D3500085D3500085D350008F7
:1001A0005D3500085D3500085D3500085D350008E7
:1001B0005D3500085D3500085D3500085D350008D7
:1001C0005D3500085D3500085D3500085D350008C7
:1001D0005D3500085D3500085D3500085D350008B7
:1001E0005D3500085D3500085D3500085D350008A7
:1001F0005D3500085D3500085D3500085D35000897
:100200005D3500085D3500085D3500085D35000886
:100210005D3500085D3500085D3500085D35000876
:100220005D3500085D3500085D3500080000000000
:100230005D3500085D350008000000005D350008F0
:100240005D3500085D3500085D3500085D35000846
:100250005D3500085D3500085D3500085D35000836
:100260005D3500085D3500085D3500085D35000826
:100270005D3500085D3500085D35000800000000B0
:100280005D3500085D3500085D35000800000000A0
:08029000000000005D350008CC
:1002A00010B5054C237833B9044B13B10448AFF3B0
:1002B00000800123237010BD940000240000000082
:1002C00054AC010808B5034B1BB103490348AFF315
:1002D000008008BD000000009800002454AC010814
:1002E00010F8012B11F8013B012A28BF9A42F7D0E0
:1002F000D01A704781F0004102E000BF83F0004354
:1003000030B54FEA41044FEA430594EA050F08BFB0
:1003100090EA020F1FBF54EA000C55EA020C7FEA74
:10032000645C7FEA655C00F0E2804FEA5454D4EBF1
:100330005555B8BF6D420CDD2C4480EA020281EABB
:10034000030382EA000083EA010180EA020281EAF3
:100350000303362D88BF30BD11F0004F4FEA013145
:100360004FF4801C4CEA113102D0404261EB410154
:1003700013F0004F4FEA03334CEA133302D05242DA
:1003800063EB430394EA050F00F0A780A4F1010496
:10039000D5F1200E0DDB02FA0EFC22FA05F28018D0
:1003A00041F1000103FA0EF2801843FA05F35941B6
:1003B0000EE0A5F120050EF1200E012A03FA0EFC35
:1003C00028BF4CF0020C43FA05F3C01851EBE3715F
:1003D00001F0004507D54FF0000EDCF1000C7EEB7C
:1003E00000006EEB0101B1F5801F1BD3B1F5001FBA
:1003F0000CD349085FEA30004FEA3C0C04F10104D9
:100400004FEA445212F5800F80F09A80BCF1004F01
:1004100008BF5FEA500C50F1000041EB045141EA83
:10042000050130BD5FEA4C0C404141EB0101013C4C
:1004300028BFB1F5801FE9D291F0000F04BF01463B
:100440000020B1FA81F308BF2033A3F10B03B3F10D
:1004500020020CDA0C3208DD02F1140CC2F10C029D
:1004600001FA0CF021FA02F10CE002F11402D8BFFB
:10047000C2F1200C01FA02F120FA0CFCDCBF41EAC7
:100480000C019040E41AA2BF01EB0451294330BD96
:100490006FEA04041F3C1CDA0C340EDC04F1140473
:1004A000C4F1200220FA04F001FA02F340EA03004A
:1004B00021FA04F345EA030130BDC4F10C04C4F190
:1004C000200220FA02F001FA04F340EA0300294670
:1004D00030BD21FA04F0294630BD94F0000F83F4BA
:1004E000801306BF81F480110134013D4EE77FEA9D
:1004F000645C18BF7FEA655C29D094EA050F08BFE9
:1005000090EA020F05D054EA000C04BF19461046C9
:1005100030BD91EA030F1EBF0021002030BD5FEA0D
:10052000545C05D14000494128BF41F0004130BD35
:1005300014F580043CBF01F5801130BD01F0004589
:1005400045F0FE4141F470014FF0000030BD7FEAFC
:10055000645C1ABF194610467FEA655C1CBF0B46F7
:10056000024650EA013406BF52EA033591EA030F0E
:1005700041F4002130BD00BF90F0000F04BF002106
:10058000704730B54FF4806404F132044FF0000539
:100590004FF0000150E700BF90F0000F04BF0021B2
:1005A000704730B54FF4806404F1320410F0004518
:1005B00048BF40424FF000013EE700BF42004FEA13
:1005C000E2014FEA31014FEA02701FBF12F07F4390
:1005D00093F07F4F81F06051704732F07F4208BF47
:1005E000704793F07F4F04BF41F40021704730B54E
:1005F0004FF4607401F0004521F000411CE700BF9A
:1006000050EA010208BF704730B54FF000050AE01C
:1006100050EA010208BF704730B511F0004502D51D
:10062000404261EB41014FF4806404F132045FEA1F
:10063000915C3FF4D8AE4FF003025FEADC0C18BFC8
:1006400003325FEADC0C18BF033202EBDC02C2F1BA
:10065000200300FA03FC20FA02F001FA03FE40EA4C
:100660000E0021FA02F11444BDE600BF53B94AB9A5
:10067000002908BF00281CBF4FF0FF314FF0FF30AA
:1006800000F06AB9ADF1080C6DE904CE00F006F88F
:10069000DDF804E0DDE9022304B070472DE9F047FE
:1006A000089D0C46002B4ED194468C458646B2FAE6
:1006B00082F262D94AB1C2F12003914020FA03F3D9
:1006C0000CFA02FC194300FA02FE4FEA1C471FFA1B
:1006D0008CF6B1FBF7F44FEA1E4307FB141143EA13
:1006E000014304FB06F199420AD91CEB030304F110
:1006F000FF3080F01281994240F20F81023C634446
:10070000591A1FFA8EF3B1FBF7F007FB101143EAF9
:10071000014300FB06F69E420AD91CEB030300F1DD
:10072000FF3180F0FC809E4240F2F9806344023841
:100730009B1B40EA044000211DB1D3400022C5E9C3
:100740000032BDE8F0878B4205D90DB1C5E9000143
:1007500000210846F5E7B3FA83F1002946D1A34208
:1007600002D39042C0F0F080861A64EB03030120AC
:10077000002DE6D0C5E90063E3E7002A40F0908051
:10078000A1EB0C044FEA1C481FFA8CF70121B4FBC3
:10079000F8F64FEA1E4308FB164443EA044307FBFE
:1007A00006F0984208D91CEB030306F1FF3402D28D
:1007B000984200F2CD8026461C1A1FFA8EF3B4FB35
:1007C000F8F008FB104443EA044300FB07F79F429C
:1007D00008D91CEB030300F1FF3402D29F4200F260
:1007E000B0802046DB1B40EA0640A5E7C1F12006A9
:1007F0008B4022FA06F71F4320FA06FC04FA01F3A5
:1008000043EA0C03F44000FA01F8380C4FEA1349AC
:10081000B4FBF0FE1FFA87FC00FB1E4449EA0444C7
:100820000EFB0CF9A14502FA01F20AD93C190EF1AE
:10083000FF3A80F08480A14540F28180AEF1020E43
:100840003C44A4EB09041FFA83F9B4FBF0F300FB6A
:10085000134449EA044403FB0CFCA44507D93C19A2
:1008600003F1FF3067D2A44565D9023B3C4443EA1B
:100870000E40A0FB0293A4EB0C049C42CE469C4687
:1008800051D34ED055B1B8EB0E0364EB0C0404FA0F
:1008900006F6CB401E43CC40C5E90064002150E77A
:1008A000C2F1200320FA03F10CFA02FC24FA03F34C
:1008B00094400C434FEA1C4800FA02FE1FFA8CF7E2
:1008C000B3FBF8F008FB1031230C43EA014300FBB3
:1008D00007F1994208D91CEB030300F1FF362CD233
:1008E00099422AD9023863445B1AA4B2B3FBF8F1E7
:1008F00008FB113344EA034401FB07F3A34208D980
:100900001CEB040401F1FF3613D2A34211D90239C2
:100910006444E41A41EA004139E70446F0E6084637
:1009200006E7C845AED2B9EB020E63EB070C0138FF
:10093000A8E73146EDE7034699E73046D4E7D646C7
:100940007FE7634402384DE70646234608460FE733
:10095000023E634430E700BF704700BF08B54FF464
:100960007A700AF060F8FAE7024C08B520460DF0FC
:10097000E1F8FBE77C160024024C08B5204611F094
:10098000A0F9FBE760010024F0B4D0E90E350024A3
:100990009D421E4603D10020F0BC1070704736689F
:1009A0000433671C8E4203D1E1B2F0BC12F0D5BF14
:1009B0003C46EDE7F0B4D0E90E3500249D421E46DA
:1009C00003D10020F0BC1070704736680433671CF8
:1009D0008E4203D1E1B2F0BC12F0BFBF3C46EDE75E
:1009E000890019F089BC090119F086BC002808B5F6
:1009F00006D001DA19F054FDBDE8084019F0A1BC99
:100A000008BD000013B501460DF107020A480CF0BD
:100A10009FFB9DF8073004465BB101460DF10702CC
:100A200005480CF0B4FB00232146038002480CF07B
:100A3000C9FB02B010BD00BF7C16002407B50146FB
:100A40000DF1070206480CF083FB9DF807300146C4
:100A500013B103480CF0B6FB03B05DF804FB00BF14
:100A60007C16002410B59EB04C2200210BA819F072
:100A7000BBFF2022002103A819F0B6FF022005F0D9
:100A8000F5FC002300933A4BDA6A22F00102DA62A5
:100A9000DB6A03F001030093364B9A6942F440424B
:100AA0009A619A6902F440420092009A9A6992040B
:100AB000FCD5314AD2F8F41041F00201C2F8F4102A
:100AC000D2F8F41001F00201019101990021029184
:100AD000996941F4404199619B6903F44043029351
:100AE000234BD96A41F00101D962DB6A214903F045
:100AF00001030293029B8B699B04FCD5936A01203E
:100B000004244FF00C0C23F0030343F00203936220
:100B10004FF480335022CDE90B0302230BA8CDE91B
:100B200014331693CDE917231823CDE91934002384
:100B3000CDE91BC31D9305F0BDFC08B172B6FEE7FD
:100B40003F2203230821059003A8CDE90323402376
:100B50004FF48062CDE9061321460893CDE90923BD
:100B600005F0D6FF08B172B6FEE71EB010BD00BF9B
:100B700000040058004802580044025800B5B1B0C3
:100B8000A022002108A819F02FFF4FF40823032208
:100B9000192101A8CDE901320223CDE90313C021B7
:100BA0000A9307912821CDE90533CDE90B13CDE94F
:100BB0000D324FF440630F934FF000531C934FF4EA
:100BC0008033299306F02AFA08B172B6FEE731B0F5
:100BD0005DF804FB0268094B9A4210B5044601D146
:100BE00002F0ECFC2146064810F046FF20B1044814
:100BF000BDE8104010F0AFBF10BD00BF000C0040BA
:100C00000402002472B6FEE710B50446006818B16D
:100C1000A168091A19F070FB204610BD30B50D68A7
:100C200085B08368D0E9004205604D6803930023D6
:100C300045608D68856001A88B60C1E90033CDE90E
:100C40000142FFF7E1FF05B030BD10B50446104684
:100C5000D4E900236FF000449B1AE21A8A4201D2C1
:100C600019F024FC994238BF19465B1804D2A342FC
:100C700028BF2346184610BD2046FCE72DE9F84F53
:100C8000D0E9008A93466FF06043AAEB080207465A
:100C90008946B3EBA20F4FEAA20402D11F4819F014
:100CA00005FCC24514BF22460122A1EB0805A41889
:100CB0002FD284B39C4228BF1C46A00019F041FBF0
:100CC0000646DBF80030002D735104DD2A4641460C
:100CD000304619F06FFEAAEB090A0435BAF1000F8D
:100CE000354404DD52464946284619F05BFF554419
:100CF000B8F1000F06D0B9684046A1EB0801891091
:100D0000FFF76EFEC7E9006506EB8406BE60BDE82E
:100D1000F88F1C46D1E72646D3E700BFC2AC0108D6
:100D200013B50446019212F0B3FD204612F04AFFBB
:100D3000D4E90F13994205D0019B41F8043BE163CC
:100D400002B010BD01AA04F13800FFF797FFF7E7E2
:100D500010B50A46044641B10021012A00F8011BE2
:100D600005D01444013A19F03FFE204610BD044658
:100D7000FBE700002DE9F84304460D4659B18268AF
:100D8000D0E90073D21AA3EB07088A4205D31846AC
:100D9000FFF7DEFF6060BDE8F883114AFFF755FFFB
:100DA0008146FFF723FE294606464044FFF7D0FF61
:100DB000B8F1000F0AD042463946304619F0FAFD24
:100DC000A1683846C91B19F097FA01E0002FF7D146
:100DD0004544266035444E446560A660DBE700BFAD
:100DE000DCAC010810B50C1A134605D001462246AA
:100DF000184619F0DFFD0346181910BD70B5D1E98A
:100E0000003604460D46F61A0023C0E9003383601D
:100E10003046FFF7EBFD06440246A660C4E9000039
:100E2000D5E90001FFF7DEFF6060204670BD0000DD
:100E3000CB072DE9F0430446A3B012D512AB08AAA4
:100E4000402104F081FC0DF1070221462C480CF0F2
:100E50007FF99DF80730064633B9014628480CF063
:100E6000B1F923B0BDE8F08340209DF82080FFF762
:100E7000BDFD12AB00F14007054604460DF1880C9C
:100E8000029004971A46083403CA624544F8080CD5
:100E900044F8041C1346F5D11A4A012102A803970D
:100EA000FFF7D3FE8146FFF7A1FD2A46034604461D
:100EB00003F8018B52F8041BBA4243F8041BF9D122
:100EC0002846402119F018FA04F1410302944C44D9
:100ED00002A905A803930494FFF790FF0DF10703FF
:100EE00005AA3146064810F047FD05A8FFF78CFE1D
:100EF000314603480CF066F902A8FFF785FEB0E71B
:100F00007C160024C2AC01082DE9F341664D012690
:100F10004FF4FA6009F087FD4FF0FF3128688DF833
:100F2000066009F0D6FD0DF107023146284615F09E
:100F3000FAF99DF8073004463BB9286809F0F5FD39
:100F40004FF47A7009F06FFDFAE75849084619F036
:100F50008FFA002855D15649544819F089FA0028CB
:100F600051D15449514819F083FA00284DD15249C2
:100F70004E4819F07DFA002849D150494B4819F0E4
:100F800077FA002845D14E49484819F071FA0028EF
:100F900041D14C49454819F06BFA00283DD14A49E6
:100FA000424819F065FA002839D148493F4819F0FC
:100FB0005FFA002835D146493C4819F059FA002813
:100FC00014BF092100218DF807000028B5D023792E
:100FD0008B42B2D1043155F82130002BADD0227AAA
:100FE000002AAAD061890022D3E900038DF80720E6
:100FF0001B1AB1EB231F4FEA231214D3354819F003
:1010000058FA0021DFE73146DDE70221DBE7032163
:10101000D9E70421D7E70521D5E70621D3E7072142
:10102000D1E70821CFE70B0100EB0111C658E368B7
:10103000D1E9018723B14FF0FF31186809F049FD6C
:1010400023785BB101238DF8073063791BB3E18806
:10105000C9B9D6E90032934200D07360637853B1C6
:101060004FB16379DBB1E3880DF1060201214046FF
:10107000B8478DF80700E368002B3FF45EAF1868AF
:1010800009F053FD59E70DF106033246194418469D
:10109000FFF7A8FEE2E79DF806303370DEE7012394
:1010A0000DF106021946E2E7981700247CB1010809
:1010B0006CB101085CB101084CB1010884B10108B0
:1010C00074B1010864B1010854B1010844B10108C8
:1010D0003CB10108F6AC0108F8B50023571A0446E4
:1010E0000D4616468360C0E9003302D5084819F062
:1010F000DDF93846FFF77AFC0744024620603146A6
:101100002846A760FFF76EFE60602046F8BD00BF6E
:1011100040AD0108F7B502AB04460E4615468F18E0
:1011200003E9060000239A428360C0E9003302DA33
:10113000084819F0BBF91046FFF758FC0544024671
:10114000206039463046A560FFF74CFE60602046BF
:1011500003B0F0BD40AD01082DE980484FF0140800
:10116000B7B0D64D02F0FCF9FFF77CFC0024FFF786
:1011700005FD424600212FA819F036FCD5F8E030D5
:101180000122342143F01003CD4811274FF0080B02
:10119000C5F8E0300126D5F8E0304FF0020A4FF0F4
:1011A000100903F010030693069BD5F8E03043F0D6
:1011B0008003C5F8E030D5F8E03003F080030793F2
:1011C000079BD5F8E03043F00103C5F8E030D5F8CF
:1011D000E03003F001030893089BD5F8E03043F0BA
:1011E0000403C5F8E030D5F8E03003F004030993B8
:1011F000099BD5F8E03043F00203C5F8E030D5F89C
:10120000E03003F002030A930A9BD5F8E03043F084
:101210000803C5F8E030D5F8E03003F008030B937D
:101220000B9B04F0E1FD00224FF64001A44804F0BE
:10123000DBFD01220221A34804F0D6FD012220217A
:10124000A14804F0D1FD01220221A04804F0CCFD08
:1012500000224FF440619D4804F0C6FD00224FF487
:101260004F619B4804F0C0FD34232FA99448CDE979
:101270002F37CDE9314404F0CFFC2FA990483194A9
:10128000CDE92FB404F0C8FC4FF640032FA98C48D9
:10129000CDE92F36CDE9314404F0BEFC48F201031C
:1012A0002FA988483194CDE92F3404F0B5FC2FA93B
:1012B0008448CDE92FA7CDE9314404F0ADFC2FA936
:1012C00081483196CDE92F9404F0A6FC20232FA964
:1012D0007D48CDE92F37CDE9314404F09DFC2FA99D
:1012E0007A48CDE92FA7CDE931444FF4881A04F0AC
:1012F00093FC24232FA975483194CDE92F3A04F0AB
:101300008BFC4FF440632FA97048CDE92F36CDE90F
:10131000314404F081FC4FF44F632FA96C48CDE9B0
:101320002F36CDE9314404F077FC4FF480532FA9D8
:1013300067483194CDE92F3404F06EFC2FA964483E
:101340003194CDE92FBA04F067FCD5F8D8302246A5
:10135000052133430B20C5F8D830D5F8D8303340B9
:101360000493049BD5F8D83043F00203C5F8D83075
:10137000D5F8D830574D03F002030593059B02F0D2
:10138000CFFD0B2002F0FEFD224605210C2002F0CD
:10139000C7FD0C2002F0F6FD224605210D2002F0CB
:1013A000BFFD0D2002F0EEFD224605210E2002F0C9
:1013B000B7FD0E2002F0E6FD224605210F2002F0C7
:1013C000AFFD0F2002F0DEFD22460521484602F067
:1013D000A7FD484602F0D6FD22460521384602F018
:1013E0009FFD384602F0CEFD224605212F2002F057
:1013F00097FD2F2002F0C6FD22460521382002F07D
:101400008FFD382002F0BEFD22460521392002F072
:1014100087FD392002F0B6FD224605213A2002F070
:101420007FFD3A2002F0AEFD224605213B2002F06E
:1014300077FD3B2002F0A6FD224605213C2002F06C
:101440006FFD3C2002F09EFD22460521442002F063
:1014500067FD442002F096FD22460521452002F05A
:101460005FFD452002F08EFD22460521462002F058
:1014700057FD462002F086FD1C2221462FA8164F5C
:101480002D94CDE92B4419F0AFFA4FF40013284600
:10149000AC82AE612C776C6385F83840C5E9007387
:1014A0000427C5E902442F61C5E90944C5E90B4495
:1014B00002F05AFB90B172B6FEE700BF004402583A
:1014C0000010025800000258000802580004025898
:1014D000000C025818270024002002402B902BA952
:1014E000284602F0A5FC08B172B6FEE7A74C062319
:1014F0008DF8D5002FA9CDE92F4340F2FF730324C7
:10150000CDE933702846CDE9314302F099F802461F
:1015100008B172B6FEE79E484FF00A099D4B1225AE
:101520004FF04F0B4FF0150A03604FF440730282E7
:101530008274C2638566C0E90232C0E90D22C0E947
:101540001227C0E91427C0E91622C0E91892C0E9A1
:101550000568C0E907B8C0E90964C0E90BA4C0E99F
:10156000109503F0A3FE4FF44073024608B172B623
:10157000FEE789488949028201608274C0E902322B
:101580004FF4B473C0E90568C0E907B8C0E909645D
:10159000C0E90BA4C0E90D32C0E90F29C0E911521E
:1015A000C0E91372C0E91572C0E91729C0E919250D
:1015B00003F07CFE08B172B6FEE7794C794B7A4DA8
:1015C0002062C4E90206C4E90400C4E9060020461A
:1015D000C4E9003504F068FD014608B172B6FEE7C3
:1015E000204604F0F8FE014608B172B6FEE7204638
:1015F00004F017FF08B172B6FEE76C4C6C4B20622A
:10160000C4E90206C4E90400C4E906002046C4E9AE
:10161000003504F049FD014608B172B6FEE72046E8
:1016200004F0D9FE08B172B6FEE700215F4804F06D
:10163000F8FE08B172B6FEE75E4C0C255E4B4FF427
:10164000E1362061C4E90200C4E90550C4E907009D
:10165000C4E909002046C4E9003608F0D6FC01467A
:1016600008B172B6FEE7204608F0D3FD014608B186
:1016700072B6FEE7204608F0ECFD08B172B6FEE750
:10168000204608F0ABFD08B172B6FEE74B4C4DF6B4
:10169000E053DFF838B1A062C4E90200C4E90405F0
:1016A000C4E90600C4E908002046C4E900B308F014
:1016B000ACFC014608B172B6FEE7204608F0A9FD71
:1016C000014608B172B6FEE7204608F0C2FD08B137
:1016D00072B6FEE7204608F081FD034608B172B6F7
:1016E000FEE737481946374A8362C0E900261A46A2
:1016F000C0E90233C0E90435C0E90633C0E9083364
:1017000008F02AFD08B172B6FEE700212C4808F067
:1017100080FD014608B172B6FEE7294808F099FD40
:1017200008B172B6FEE7264808F058FD08B172B657
:10173000FEE7254C4FF4E133DFF894A02061C4E9C3
:1017400000A30C23C4E90200C4E90530C4E9070082
:10175000C4E90900204608F058FC014608B172B6F9
:10176000FEE7204608F055FD014608B172B6FEE7D7
:10177000204608F06EFD08B172B6FEE7204608F07C
:101780002DFD044630B372B6FEE700BF0000844B67
:101790001426002400A000407425002400A400406A
:1017A0002825002400540040B1757030DC2400244A
:1017B000001C00589820002400100140082000243C
:1017C000781F002400480040E81E00240044004028
:1017D00000140140014610222FA8A54D19F004F96C
:1017E000DFF8C0924EF660232BAE2B942846AC60F7
:1017F000AC61C5E900934FF6FF73C6E90144C5E942
:10180000033407F0CFFB08B172B6FEE74FF4805304
:101810002FA928462F9307F0F1FC08B172B6FEE716
:101820002B9031462D90284607F042FE08B172B643
:10183000FEE71C2200212FA88E4C19F0D5F84FF49A
:101840000013DFF864E24FF0080804250122204667
:101850002561A261C4E900E30023C4E90283A382F5
:101860002377636384F83830C4E90933C4E90B3360
:1018700002F07AF908B172B6FEE706237E4F4FF008
:10188000030C8DF8D5002FA9CDE92F7340F2FF731B
:10189000CDE933502046CDE931C301F0D1FE08B186
:1018A00072B6FEE7754C0C25754B4FF4E13720619D
:1018B000C4E90200C4E90550C4E90700C4E909000D
:1018C0002046C4E9003708F0A0FB014608B172B613
:1018D000FEE7204608F09DFC014608B172B6FEE71F
:1018E000204608F0B6FC08B172B6FEE7204608F0C4
:1018F00075FC08B172B6FEE7624C634BA062C4E9A6
:101900000200C4E90405C4E90600C4E90800204651
:10191000C4E9003708F079FB014608B172B6FEE76A
:10192000204608F076FC014608B172B6FEE7204674
:1019300008F08FFC08B172B6FEE7204608F04EFCB6
:1019400008B172B6FEE7514C4FF4E13350490C2018
:101950004FF44072C4E900130023C4E90502204695
:101960002361C4E90233C4E90733C4E9093308F049
:101970004CFB014608B172B6FEE7204608F049FC70
:10198000014608B172B6FEE7204608F062FC08B1D5
:1019900072B6FEE7204608F021FC034608B172B695
:1019A000FEE73C483C4A8360C0E900234FF4804294
:1019B000C0E903230423436106F0DEFE054608B1B7
:1019C00072B6FEE728AF01461022304619F00CF837
:1019D0001C22289529462FA8304CC7E9015519F03B
:1019E00003F80A232E4A2046A560A561C4E9002316
:1019F000FF23C4E9033507F0D5FA08B172B6FEE754
:101A00004FF48053314620462B9307F0F7FB08B183
:101A100072B6FEE7204607F0F5FA08B172B6FEE7A7
:101A2000289039462A90204607F042FD024608B128
:101A300072B6FEE7602333902FA9CDE92F30022341
:101A40002046319307F054FB08B172B6FEE704223A
:101A50002FA9124807F04CFB08B172B6FEE7082226
:101A60002FA90E4807F044FB0546F8B172B6FEE711
:101A7000D8220024B42600240000B8CF4822002435
:101A8000004C004028210024007C0040B8210024A4
:101A900000780040702300240070005224230024AA
:101AA000000400400008004000600258D0484FF099
:101AB000080A00F0E5FF40F2FF722946CD48CE4CFF
:101AC00002F066F940F2FF722946CC484FF4006BF1
:101AD00002F05EF9CA4814F01AFCC9492046DFF842
:101AE000608310F0E1F8C64814F011FCC44814F00B
:101AF000C3FCC44BC44AC249C44800940BF0E9FA81
:101B0000C2480BF0E3FD2346C04ABD49BE4815F06C
:101B1000E1FABE4ABA49BE4812F00CFFBC4813F0C5
:101B200003FC2246B649B74815F084FCB54816F0C8
:101B300033F9B84BB64AB249B748009414F093FE53
:101B4000B54815F059F9AE492046DFF8F89210F083
:101B5000ABF8204610F004FDAB4BAD4AA849AF48A6
:101B6000009411F0DBFDAD4811F0A2FB2946A0481E
:101B700007F09CFC04219E4807F098FC08219C4833
:101B800007F094FCADF85CA04246179B0421204668
:101B9000CDF8588010F014FE102342460321204651
:101BA000ADF86430199BCDF8608010F009FE202359
:101BB000424601212046ADF86C301B9BCDF8688071
:101BC00010F0FEFD4023424629462046ADF8743011
:101BD0001D9BCDF8708010F0F3FDADF87CB008F5DA
:101BE00080684A461F9B02212046CDF8789010F06D
:101BF000E7FDADF884B04246219B07212046CDF891
:101C0000808010F0DDFD4FF4805342465146ADF820
:101C10008C302046239BCDF8888010F0D1FD4FF406
:101C20000053424609212046ADF89430259BCDF85B
:101C3000908010F0C5FD4FF4804342460A212046B3
:101C4000ADF89C30279BCDF8988010F0B9FD4FF48B
:101C50000043CDF8A0800B212046ADF8A4300DF153
:101C6000480897E80C0010F0ABFD4FF4806314AF08
:101C7000CDF8AC90ADF8B0300C2120460DF10C0938
:101C800096E80C00012610F09BFD3B46414632468B
:101C90002FA88DF84860CDE90C86FFF73BFA0223A8
:101CA0002FAA2946204610F0CEFD2FA8FEF7ACFF44
:101CB0003B46324641462FA88DF84860CDE90E8656
:101CC000FFF728FA02232FAA3146204610F0BBFD69
:101CD0002FA8FEF799FF3B46324641462FA88DF8C4
:101CE0004860CDE91086FFF715FA02232FAA204697
:101CF000194610F0A8FD2FA8FEF786FF3B462FA837
:101D00008DF80C60CDE9129698E80600FFF702FA0C
:101D100002232FAA0321204610F095FD2FA8FEF7DD
:101D200073FF0DEB0A032FA88DF80860CDE9143678
:101D30004B4697E80600FFF7EDF902232FAA04218E
:101D4000204610F080FD2FA8FEF75EFF344B354A89
:101D50000D2100932046043B10F036FB204610F086
:101D600094FC20460AF02AFE314628480BF03DFA42
:101D70004FF480712C4811F017FE2C4A02212A489A
:101D8000FEF7CEFF2A4A03212748FEF7C9FF294A5A
:101D900005212548FEF7C4FF23491C480BF0F4FA3F
:101DA00002211A480BF00EFA032118480BF00AFA28
:101DB000052116480BF006FA3E211F4811F0F4FDEC
:101DC0001E4A29461C4812F08BF829461A4811F081
:101DD000E6FF2946184811F0F5FF2946164812F08B
:101DE00002F8154909480BF0CFFA29462CE000BF4C
:101DF000242300241827002460010024B426002492
:101E000098170024B8160024380200247C160024F9
:101E1000200200240402002498010024F800002479
:101E20003C04004034040040301700249820002473
:101E3000E81E002408200024DC16002414260024B8
:101E4000000C02580004025814480BF0BBF9144867
:101E500016F0BFFC08F074FD124A2946124808F03B
:101E60009BFD124B124A29461860124808F094FD57
:101E7000114B124A29461860114808F08DFD114B8C
:101E8000114A29461860114808F086FD104B186069
:101E9000034816F09FFC08F065FDFEE77C16002461
:101EA000B0000024DCAE0108090F0008541800241B
:101EB000B8AE01085D0900085018002494AE01086E
:101EC000690900084C18002470AE0108790900085F
:101ED0004818002410B50C1A134605D001462246B6
:101EE000184618F067FD0346181910BD2DE9F04F8C
:101EF0008BB000230C4601460DF10F0252480693A9
:101F0000CDE904330BF024F99DF80F300546A3B159
:101F100001460DF10F024C480BF02EF90DF10F02A6
:101F20000746294648480BF032F99DF80F308046A5
:101F30004BB9294644480BF045F904A8FEF764FE66
:101F40000BB0BDE8F08F0188A142F2D03A6803AB34
:101F5000114428D2224407A8FFF7BEF804A807A915
:101F6000FEF75CFE07A8FEF74FFE04A907A8FEF7E0
:101F700045FF0DF10F0307AA294633480FF0FCFC7B
:101F8000044607A8FEF740FEB8F80030E018D7E98D
:101F9000002380B29B1AA8F80000984224BFC01A00
:101FA000A8F80000C5E77A6807A8FFF795F807A921
:101FB00004A8FEF733FE07A8FEF726FED7F8009028
:101FC00009EB040BCB45D0D0069BDDE904A69A1B98
:101FD000A24210D3324659464846FEF703FF321953
:101FE000314630460592FFF775FF3246494648466E
:101FF000FEF7F8FEB9E72146144A04A80193FEF75C
:1020000024FE0090FEF7F2FC31460246044650469C
:10201000FFF760FF594602464846FEF7E3FE3146A9
:1020200002463046FFF756FF0646BAF1000F05D0CC
:10203000019B5046A3EB0A0118F05EF9009BCDE925
:1020400004461C44069490E77C16002471AD0108F8
:1020500070B50446C06A18B1616B091A18F04CF9E2
:10206000206A20B1A16A091A0911FEF7BCFC606957
:1020700020B1E169091A0911FEF7B5FCD4E902564D
:10208000AE4207D1A06818B12169091A18F034F9D5
:10209000204670BD05F110002035FEF7B5FDEFE7D5
:1020A00070B50446D0E90C56AE4212D1206B18B17F
:1020B000A16B091A18F020F9606A20B1E16A091AC7
:1020C0008910FEF78DFC04F11800FEF79DFD2046F7
:1020D00070BD281D1435FEF797FDE5E770B5044681
:1020E000806920B1216A091A8910FEF779FCD4E9C8
:1020F0000356AE4207D1E06818B16169091A18F0B9
:10210000FBF8204670BD05F11C00FEF77DFD286937
:1021100018B1A969091A18F0EFF8686818B1E968E8
:10212000091A18F0E9F82835E3E710B50446D0F8A5
:10213000A40028B1D4F8AC10091A0911FEF753FC19
:10214000D4F8980028B1D4F8A010091A0911FEF7A4
:102150004AFCD4F88C0028B1D4F89410091A09115B
:10216000FEF741FCD4F8800028B1D4F88810091A91
:102170000911FEF738FC606F20B1E16F091A0911EF
:10218000FEF731FCA06E20B1216F091A0911FEF78C
:102190002AFCE06D20B1616E091A0911FEF723FCDB
:1021A000206D20B1A16D091A0911FEF71CFC606CAD
:1021B00020B1E16C091A0911FEF715FCA06B20B1E2
:1021C000216C091A0911FEF70EFC606820B1E16864
:1021D000091A0911FEF707FC204610BD70B5044628
:1021E000D0E90056AE4207D1206818B1A168091A9B
:1021F00018F082F8204670BD686920B1E969091AB3
:102200008910FEF7EDFBA86818B12969091A18F0C2
:1022100073F82035E6E770B50446D0E90056AE42C3
:1022200007D1206818B1A168091A18F065F820468E
:1022300070BD28460C35FEF7E7FCF0E70B4B10B5F8
:1022400004460360C06A18B1616B091A18F054F8AB
:1022500004F12000FFF7DFFF04F11000FEF7D4FCCB
:10226000201DFFF7D8FF204610BD00BF8CAF01082E
:1022700010B50446006820B1A168091A8910FEF75C
:10228000AFFB204610BD10B50446006818B1A16828
:10229000091A18F031F8204610BD2DE9F84304461C
:1022A0000F46BC4201D1BDE8F883D4E90358A845E4
:1022B00007D1E06818B16169091A18F01DF81834DF
:1022C000EFE7D5E90569B14507D1686918B1E96952
:1022D000091A18F011F82835E9E706F10C0018364C
:1022E000FFF7D1FFEFE7F8B504460E46B44200D140
:1022F000F8BDD4E91C57AF4218D1206F18B1A16FB7
:10230000091A17F0F9FF606E20B1E16E091A891001
:10231000FEF766FBD4E91601FFF7BFFFA06D18B109
:10232000216E091A17F0E8FF7C34DFE705F114008D
:102330002035FFF7A8FFDEE72DE9F84FD0E9008A46
:1023400093466FF06043AAEB080207468946B3EB59
:10235000A20F4FEAA20402D11F4818F0A7F8C24505
:1023600014BF22460122A1EB0805A4182FD284B382
:102370009C4228BF1C46A00017F0E3FF0646DBF88E
:102380000030002D735104DD2A464146304618F0D6
:1023900011FBAAEB090A0435BAF1000F354404DD3C
:1023A00052464946284618F0FDFB5544B8F1000F47
:1023B00006D0B9684046A1EB08018910FEF710FB72
:1023C000C7E9006506EB8406BE60BDE8F88F1C46D1
:1023D000D1E72646D3E700BFC2AC010813B50446D7
:1023E000019211F055FA204611F0ECFBD4E90F13DD
:1023F000994205D0019B41F8043BE16302B010BD56
:1024000001AA04F13800FFF797FFF7E72DE9F04F35
:102410001F4C87B01F4D20461F4E13F037FF1F483B
:1024200012F050F81E4811F031FC1E4F2846DFF81C
:10243000888014F0F7FF30460AF03EFEDFF87C900B
:102440003846DFF87CA014F06CFE404612F05CFCCD
:10245000DFF870B0144948460FF0EDFA504614F01A
:10246000CFF958460FF012FC104810F0F1FB10485D
:102470000AF03AFB33462A46214600970D48CDE93B
:1024800003ABCDE9018916F095F907B0BDE8F08FEF
:1024900098170024B81600247C1600243017002456
:1024A000DC16002438020024D8220024F80000247E
:1024B000D0000024B00000242002002404020024E4
:1024C000980100246001002410B53248FFF7D0FEC7
:1024D0003148FFF7CDFE314C3148FFF7C9FE314896
:1024E000FFF7B6FD206D18B1A16D091A17F004FFB2
:1024F0002D48FFF7BDFED4E90401FFF7F4FE206983
:1025000018B1A169091A17F0F7FE284B186918B11C
:102510009969091A17F0F0FE2548FFF75FFE254C70
:102520002548FFF7BDFD2548FFF7D8FD244BA06CDB
:10253000236018B1216D091A17F0DEFE214BA06B44
:10254000236020B1216C091A8910FEF749FA1E4C4C
:102550001848FFF773FE1D4B204640F85C3BFEF722
:1025600053FB04F15000FEF74FFB04F14400FEF76B
:102570004BFB174BA06B236020B1216C091A89100B
:10258000FEF72EFA1048FFF759FE1248FFF7CDFD6F
:1025900010BD00BF48010024280100249801002438
:1025A0001C01002460010024B40100240402002462
:1025B0002C020024DC1600247C160024B81600240B
:1025C000C0AF010834AE010830170024FCAF010889
:1025D00018AE0108981700240A4B82B00F216FF043
:1025E0000100D3F8F42042F00202C3F8F4200022E4
:1025F000D3F8F43003F002030193019B02B001F021
:102600008FBC00BF0044025810B588B004461422A5
:10261000002103A818F0E8F923681B4A934222D14D
:102620001A4B03A91A48D3F8D82042F02002C3F865
:10263000D820D3F8D82002F020020092009AD3F8D4
:10264000E02042F00102C3F8E0201022D3F8E0308D
:1026500003F001030193019B0323CDE9032303F05E
:10266000DBFA08B010BD0B4A9342FAD1074BD3F8FE
:10267000E02042F08072C3F8E020D3F8E03003F0AD
:1026800080730293029BECE7002002400044025852
:1026900000000258006002581422002110B58AB0D0
:1026A00004460DEB020018F09FF92368374A934265
:1026B00036D1374A13680133012B13600CD1354BE7
:1026C000D3F8EC2042F48072C3F8EC20D3F8EC305D
:1026D00003F480730193019B2E4B4FF4C0510320F0
:1026E000D3F8E02042F00102C3F8E020D3F8E03054
:1026F00003F001030293029B0223CDE90513092392
:1027000005A9CDE90803244803F086FA1320002226
:10271000052101F005FC132001F034FC0AB010BDC6
:102720001E4A9342FAD11A4A13680133012B1360EF
:102730000CD1184BD3F8EC2042F48072C3F8EC2093
:10274000D3F8EC3003F480730393039B114B05A97A
:102750001348D3F8E02042F00202C3F8E0204FF41F
:102760004052D3F8E03003F002030493049B0223A9
:10277000CDE9052308930923099303F04DFA1420AA
:102780000022052101F0CCFB1420C5E700A0004089
:102790007C270024004402580000025800A4004096
:1027A0000004025870B5B8B006461422002104A8EF
:1027B00018F01AF9BC22002109A818F015F933689D
:1027C0004F4A934268D1082309A8099304F026FCD4
:1027D00008B1FEF717FA4B4CC020002504A9D4F825
:1027E000E03043F00203C4F8E030D4F8E03003F006
:1027F00002030093009B1223CDE904030423424803
:102800000893CDE9065503F007FAD4F8E830DFF86D
:102810000CC143F40013C4F8E830D4F8E8303B4C62
:1028200003F4001320460193019B2223C4E900C353
:102830004023C4E902354FF48063C4E90655C4E976
:102840000435C4E9085501F03FFD08B1FEF7DAF997
:102850002123B4632E494FF48062A6632D4CC4E952
:10286000001300232046C4E90233C4E90423C4E969
:102870000633C4E9083301F027FD08B1FEF7C2F9B9
:102880001F2000220521F463A66301F049FB1F20ED
:1028900001F078FB38B070BD1F4A9342FAD1102383
:1028A00009A8099304F0BAFB08B1FEF7ABF9154C7F
:1028B0004FF4407204A91448D4F8E03043F0020306
:1028C000C4F8E030D4F8E03003F002030293029B36
:1028D0001223CDE904230023CDE906330623089310
:1028E00003F09AF9D4F8F43043F08003C4F8F430DC
:1028F000D4F8F43003F080030393039BCAE700BFCE
:10290000005400400044025800040258642400248B
:1029100028040240EC230024001C0058100402404C
:102920002DE9F041B8B004461422002104A818F0A3
:102930005BF8BC22002109A818F056F82268314B38
:102940009A425BD14FF4803309A8099304F066FBE7
:1029500008B1FEF757F92C4B022603250C24D3F8B7
:10296000D4204FF0010804A9284842F480320027FF
:10297000C3F8D420D3F8D42002F480320192019A13
:10298000D3F8E02042F00402C3F8E020D3F8E020BE
:1029900002F004020292029AD3F8E02042F0080208
:1029A000C3F8E020D3F8E030089403F00803039361
:1029B000039B4FF47063CDE90685CDE9043603F03F
:1029C0002BF94FF4805304A910480894CDE904363C
:1029D000CDE9067503F020F9042304A90C480894F6
:1029E000CDE90436CDE9068503F016F931203A46E3
:1029F000052101F095FA312001F0C4FA38B0BDE8A4
:102A0000F08100BF007000520044025800080258D4
:102A1000000C0258036807B5164A93420FD1164BB3
:102A2000D3F8E82042F00202C3F8E820D3F8E830F7
:102A300003F002030093009B03B05DF804FB0F4A10
:102A40009342F9D10C4B05211E20D3F8E82042F027
:102A50000402C3F8E8200022D3F8E83003F00403AE
:102A60000193019B01F05CFA1E2003B05DF804EBBA
:102A700001F088BA000400400044025800080040F9
:102A800010B588B004461422002103A817F0ACFF4B
:102A90002268194B9A422CD1184B022403A91848DA
:102AA000D3F8E02042F00102C3F8E020D3F8E020A0
:102AB00002F001020192019AD3F8E02042F00202F2
:102AC000C3F8E020D3F8E030079403F00203029348
:102AD000029BC023CDE9033403F09EF8012303A930
:102AE00008480794CDE903340023CDE9053303F00A
:102AF00093F808B010BD00BF000400400044025825
:102B00000000025800040258F0B5C5B00446142273
:102B1000002110A817F068FFBC22002115A817F0AB
:102B200063FF2368A24A93426AD1022315A8159332
:102B300004F074FA08B1FEF765F89E4B4FF0030EEF
:102B400000269D48D3F8E82010A99C4D42F40022AD
:102B5000C3F8E820D3F8E82002F400220192019A99
:102B6000D3F8E02042F00802C3F8E020D3F8E030C8
:102B700003F008030293029B0223CDE910E308232C
:102B8000CDE91266149303F047F840238C4A284697
:102B9000C5E90023C5E902364FF48063C5E906663E
:102BA000C5E90436C5E9086601F08EFB08B1FEF7F9
:102BB00029F83F23DFF838C2A5674FF48062AC6381
:102BC000804DC5E900C300232846C5E904234FF41E
:102BD0008072AB616B62C5E90233C5E9072301F07E
:102BE00073FB08B1FEF70EF8342000220521E567DB
:102BF000AC6301F095F9342001F0C4F945B0F0BDA3
:102C0000714A934267D1022315A8159304F006FA7E
:102C100008B1FDF7F7FF674B4FF4F060002610A9ED
:102C2000D3F8E820694D42F08042694FC3F8E820AC
:102C3000D3F8E82002F080420392039AD3F8E02010
:102C400042F01002C3F8E020D3F8E03003F01003A4
:102C50000493049B0223CDE9100307235D481493DA
:102C6000CDE9126602F0D8FF50232846C5E900736B
:102C70004023C5E902364FF48063C5E90666C5E91D
:102C80000436C5E9086601F01FFB08B1FDF7BAFF7D
:102C90004F235149A5674FF48062AC634F4DC5E99E
:102CA000001300232846C5E904234FF48072AB616A
:102CB0006B62C5E90233C5E9072301F005FB08B1E2
:102CC000FDF7A0FF522000220521E567AC6301F06B
:102CD00027F9522090E7424A934240F08D80022328
:102CE00015A8159304F09AF908B1FDF78BFF314B45
:102CF0004FF0030E00263748D3F8E82010A9394DCD
:102D000042F00042C3F8E820D3F8E82002F0004285
:102D10000592059AD3F8E02042F01002C3F8E020B3
:102D2000D3F8E03003F010030693069B0223CDE9AD
:102D300010E30823CDE91266149302F06DFF5223CD
:102D4000294A2846C5E900234023C5E902364FF445
:102D50008063C5E90666C5E90436C5E9086601F081
:102D6000B3FA08B1FDF74EFF5123DFF888C0A5671D
:102D70004FF48062AC631D4DC5E900C300232846B3
:102D8000C5E904234FF48072AB616B62C5E902337D
:102D9000C5E9072301F098FA08B1FDF733FF532086
:102DA00000220521E567AC6301F0BAF8532023E760
:102DB000004C004000440258000C0258701E0024D1
:102DC00040040240F81D002400780040801D0024CB
:102DD000700402400010025888040240081D0024BC
:102DE000007C0040901C0024A0040240181C002419
:102DF00058040240B8040240AC4A934267D1012310
:102E000015A8159304F00AF908B1FDF7FBFEA84BCD
:102E10004FF4C060002610A9D3F8F020A54D42F071
:102E20001002A54FC3F8F020D3F8F02002F01002F2
:102E30000792079AD3F8E02042F00102C3F8E0209D
:102E4000D3F8E03003F001030893089B0223CDE997
:102E50001003072399481493CDE9126602F0DCFEB3
:102E60002A232846C5E900734023C5E902364FF4FA
:102E70008063C5E90666C5E90436C5E9086601F060
:102E800023FA08B1FDF7BEFE29238D49A5674FF44B
:102E90008062AC638B4DC5E9001300232846C5E969
:102EA00004234FF48072AB616B62C5E90233C5E95C
:102EB000072301F009FA08B1FDF7A4FE252000223E
:102EC0000521E567AC6301F02BF8252094E67E4AE6
:102ED000934268D1022315A8159304F09FF808B116
:102EE000FDF790FE724B4FF00C0E00267348D3F89E
:102EF000E82010A9754D42F40032C3F8E820D3F859
:102F0000E82002F400320992099AD3F8E02042F056
:102F10000102C3F8E020D3F8E03003F001030A9384
:102F20000A9B0223CDE910E30723CDE9126614932F
:102F300002F072FE2C23664A2846C5E9002340238E
:102F4000C5E902364FF48063C5E90666C5E9043673
:102F5000C5E9086601F0B8F908B1FDF753FE2B2367
:102F6000DFF890C1A5674FF48062AC63594DC5E9A5
:102F700000C300232846C5E904234FF48072AB61E7
:102F80006B62C5E90233C5E9072301F09DF908B179
:102F9000FDF738FE262000220521E567AC6300F02E
:102FA000BFFF262028E64C4A934240F0A58002232A
:102FB00015A8159304F032F808B1FDF723FE3C4B39
:102FC000002602270725D3F8E82010A9434842F439
:102FD0008022C3F8E820D3F8E82002F480220B9284
:102FE0000B9AD3F8E02042F00202C3F8E020D3F8B5
:102FF000E02002F002020C920C9AD3F8E02042F09A
:103000000802C3F8E020D3F8E030149503F0080379
:103010000D930D9B4FF48043CDE91266CDE9103737
:1030200002F0FAFD4FF440732D4810A914952D4D70
:10303000CDE91037CDE912662B4F02F0EDFD2E23BE
:103040002846C5E900734023C5E902364FF4806382
:10305000C5E90666C5E90436C5E9086601F034F934
:1030600008B1FDF7CFFD2D23204EA5674FF48062F8
:10307000AC631F4DC5E9006300232846C5E904235E
:103080004FF48072AB616B62C5E90233C5E9072377
:1030900001F01AF908B1FDF7B5FD2720002205213E
:1030A000E567AC6300F03CFF2720A5E50010014078
:1030B00000440258A01B00241000024000000258E7
:1030C00028000240281B002400440040B01A0024BD
:1030D00040000240381A0024004800400004025812
:1030E000000C0258C0190024700002408800024001
:1030F0004819002458000240354A93427FF47EADBF
:10310000012315A8159303F089FF08B1FDF77AFD97
:10311000304BC02100263048D3F8F0202F4D42F02C
:103120002002C3F8F020D3F8F02002F020020E9223
:103130000E9AD3F8E02042F00402C3F8E020D3F85E
:10314000E03003F004030F930F9B0223CDE910132B
:10315000072310A91493CDE9126602F05DFD204803
:103160004823C5E9000340232846C5E902364FF449
:103170008063C5E90666C5E90436C5E9086601F05D
:10318000A3F808B1FDF73EFD164A4723A567AC63D7
:10319000154DC5E9002300234FF480622846AB613A
:1031A0006B62C5E904234FF48072C5E90233C5E9B7
:1031B000072301F089F808B1FDF724FD472000221C
:1031C0000521E567AC6300F0ABFE472014E500BFC6
:1031D000001401400044025800080258D01800248E
:1031E000A0000240B8000240581800240F2810B573
:1031F00004468AB002D901200AB010BD014600225F
:10320000322000F08DFE322000F0BCFE184B6946E3
:1032100002A81C60174BD3F8E82042F00802C3F85C
:10322000E820D3F8E83003F008030193019B03F092
:10323000DBFD079BC3B903F0B3FD0F4C0F4B2360BD
:1032400040F2E733E3600E4BB0FBF3F001380023AC
:10325000606020462361A36005F0A4FE0028CAD167
:10326000204605F02DFDC7E703F09AFD4000E4E796
:103270000C0000240044025880270024000C004069
:1032800040420F00FEE7FEE7FEE7FEE7FEE770477D
:10329000014801F029BD00BFA01B0024014801F036
:1032A00023BD00BF281B0024014801F01DBD00BF45
:1032B000B01A0024014801F017BD00BF381A0024DD
:1032C000014801F011BD00BFC0190024014801F000
:1032D0000BBD00BF48190024014801F005BD00BF27
:1032E000D0180024014802F02FBB00BF1426002490
:1032F000014802F029BB00BF74250024014805F0F5
:103300003ABD00BFD8220024014803F05DB800BFD9
:1033100028250024014806F007BA00BF98200024A1
:10332000014806F001BA00BF08200024014806F059
:10333000FBB900BF781F0024014801F0D5BC00BFD5
:1033400058180024014805F06DBA00BF702300240E
:10335000014805F010BD00BF80270024014806F099
:10336000E3B900BF48220024014801F0BDBC00BF02
:1033700064240024014801F0B7BC00BFEC23002402
:10338000014801F0B1BC00BF701E0024014801F0EB
:10339000ABBC00BFF81D0024014801F0A5BC00BF74
:1033A000801D0024014801F09FBC00BF081D0024BF
:1033B000014801F099BC00BF901C0024014801F0B5
:1033C00093BC00BF181C0024014806F0ADB900BF33
:1033D000E81E0024014806F0A7B900BFB821002468
:1033E000014806F0A1B900BF282100240120704740
:1033F00008B517F0ABFB162303604FF0FF3008BD94
:1034000008B517F0A3FB16230360FEE70B4A03463B
:10341000116810B509B90A491160106809490A4CC8
:103420000344091B8B4206D917F090FB0C23036061
:103430004FF0FF3010BD1360FCE700BFCC27002425
:10344000089600240000082400040000254AD2F851
:10345000883043F47003C2F88830234A136803F0BD
:103460000F03062B05D8136823F00F0343F007035F
:1034700013601E4B1A6842F001021A6000221A61A2
:103480001B4A19680A4018491A600A68120705D5CC
:103490000A6822F00F0242F007020A600022154972
:1034A0009A61DA611A6299621349D9621349196300
:1034B0005A639963DA6319645A64196821F48021A4
:1034C00019601A660E4B1B681B0C1B04B3F1005FDE
:1034D00003D20C4B0122C3F808210B4B43F2D2025A
:1034E0001A60704700ED00E00020005200440258CE
:1034F0007FEDF6EA000202020000FF0180020101F6
:103500000010005C0080005100400052DFF834D011
:10351000FFF79CFF0C480D490D4A002302E0D458E8
:10352000C4500433C4188C42F9D30A4A0A4C00230D
:1035300001E013600432A242FBD317F00DFBFDF74C
:103540000BFE7047000008240000002494000024B3
:1035500064B301089400002408960024FEE70000EC
:1035600010B5032000F0CAFC03F030FA0F49104AEE
:103570008B69C3F30323D35C03F01F03D8408B692B
:1035800003F00F03D35C0B4A03F01F0320FA03F38D
:103590001360094B18600020FFF728FE044618B995
:1035A000FFF71AF8204610BD0124FBE7004402583B
:1035B00000AF01080000002404000024034A044B6B
:1035C00011681B780B441360704700BFD02700249C
:1035D00008000024014B1868704700BFD027002462
:1035E00038B50446FFF7F6FF0546631C1EBF044BC3
:1035F0001B78E418FFF7EEFF431BA342FAD338BD54
:1036000008000024014B1868000C70470010005C93
:1036100030B5CC0D1430C1F30451072504F0040477
:103620008D408A40035923EA05031343035130BDFB
:10363000806800F0010070478068C0F38000704728
:103640000023F7B50193054690F850300E46012B44
:1036500000F0A2810122046880F850202046FFF784
:10366000EBFF002840F06C810B68C3F31300C3F339
:103670008461002868D18A40E36904F1300C1F2777
:1036800013437268900902F01F02E36100F00C001E
:10369000974091405CF8003023EA07030B434CF855
:1036A00000302046FFF7C8FFA36803F00803034378
:1036B0003FD1B26820463168FFF7AAFFB74B726965
:1036C0001B6803F07043B3F1805FE36845D1C3F337
:1036D00082035B0037699A403168042F45D004F1BA
:1036E000600001F0F84150F8273003F000430B432D
:1036F000134340F82730727E3169571E50F821304D
:103700007A4223F000437A4143EAC27340F8213001
:10371000337E316903F1FF3C226901F01F01DCF1C6
:10372000000322F4F04243EB0C03DB028B40134313
:1037300023612046FFF77CFF00283DD000200023B6
:1037400085F8503003B0F0BD93FAA3F3B3FA83F3D6
:10375000012203F01F039A408EE713F0100FE36875
:10376000B5D05B0803F00803B4E7236E8A0603F0C4
:10377000F843B3EB816F03D1236E23F0004323663C
:10378000636E03F0F8439A4203D1636E23F0004363
:103790006366A36E03F0F8439A4203D1A36E23F04D
:1037A0000043A366E36E03F0F8439A42C1D1E36E8F
:1037B00023F00043E366BCE7F768336807F0180CB2
:1037C000774AD4F8C010C3F3130022FA0CF221EAAE
:1037D00000011A400A43C4F8C020724A97421BD124
:1037E000002858D19A0E0121013202F01F079206DB
:1037F000092F70D802F0F842B9401143002865D172
:103800009B0E013303F01F0303EB43031B05194316
:10381000B2682046FFF7FCFE3268002A8EDA624961
:103820008C4200F08680614E614B6248B44208BF12
:1038300003468C429B6802D05C498C427BD15A483B
:10384000FFF7F6FE01465948FFF7F2FE014377D134
:10385000594803F0E071824278D118023FF56EAF0B
:10386000564B9C427FF46AAF514A936823F0E07351
:103870000B4343F400039360514B524A1B68B3FB64
:10388000F2F301335B000193019B002B3FF456AF31
:10389000019B013BF7E793FAA3F232B1B2FA82F24D
:1038A000013202F01F02092A25D893FAA3F2B2FAD4
:1038B00082F20132920602F0F84293FAA3F7B7FAC5
:1038C00087F70121013707F01F0795E793FAA3F364
:1038D000B3FA83F395E702F0F842B9401143D8B93F
:1038E0009B0E013303F01F0303EB43031E3B1B0539
:1038F00043F000738BE793FAA3F2B2FA82F201323B
:10390000920602F0F84293FAA3F7B7FA87F701217B
:10391000013707F01F07E0E793FAA3F2B2FA82F249
:1039200003236FF01D00013202F01F0213FB02039C
:10393000DDE7204B7DE72148FFF77AFE002887D09E
:103940006B6D012043F020036B65F8E61E48824250
:103950000FD1DA013FF5F2AE184B9C427FF4EEAE88
:10396000134A936823F0E0730B4343F08073936032
:10397000E4E6164882427FF4E1AE5B023FF5DEAE3C
:103980000E4B9C427FF4DAAE094A936823F0E07351
:103990000B4343F48003EAE70220D3E60010005C07
:1039A000FFFF0F000000FF470020024000210240FF
:1039B0000063025800230240000084CB00600258DC
:1039C00004000024400D0300000052C70000B8CFDF
:1039D000026838B5044610469368FFF729FE08B917
:1039E000002038BD9907FBD4936803F00D03012B29
:1039F00019D1936823F0004323F03F0343F00203FF
:103A0000936003231360FFF7E5FD054623689B6879
:103A1000DB07E5D5FFF7DEFD401B0228F6D923685A
:103A20009B68DA07F2D5636D012043F010036365EC
:103A3000A36D43F00103A365D3E7000038B5434A03
:103A400005460368934203D002F58072934224D165
:103A50003F4B9B6813F4403F14BF01230023F3B98D
:103A60004FF4002004F074F96B680446B3F5101F9E
:103A70004AD03FD8B3F5E01F44D036D8B3F5801F05
:103A800008D02CD8B3F5002F04D023F40022B2F5CF
:103A9000802F16D19B0C5B000FE02E4BD9E703F073
:103AA0005DF96B680446B3F5003F05D0B3F5403FC0
:103AB00006D0B3F5803F04D11B0CB4FBF3F400E057
:103AC0008408FFF79FFD41F2030398422B6823D837
:103AD000214A94429A681BD942F480721AE0B3F5E5
:103AE000A01FD7D0B3F5C01FD3E7B3F5001FE8D1AF
:103AF0004409E6E7B3F5201F08D0B3F5301FE0D145
:103B0000040ADEE70409DCE78409DAE7C409D8E738
:103B100022F480729A6038BD104A944203D89A68A1
:103B200022F44072F6E70E4A944203D89A6822F4CF
:103B30004072D1E70B4A94429A6896BF22F44072D1
:103B400042F4407242F40072E4E700BF00200240F9
:103B50000023024000630258002D310121BCBE0049
:103B600041787D0181F0FA02002373B50446019388
:103B7000002800F0F080456D25B9FEF745FDA565EC
:103B800084F8505023689A68900005D59A6822F00E
:103B9000204222F03F029A609A68D10040F19D8055
:103BA0009A68D20000F1AF80626D012542F01002E8
:103BB0006265A26D42F00102A2651846FFF73CFD66
:103BC000626D02F01002024340F0C180626D18463F
:103BD00022F4817242F002026265FFF729FD80B98A
:103BE0005E4E5F49B34202D08B4240F08E805B480C
:103BF000FFF71EFD02465A48FFF71AFD024300F088
:103C00009280FFF7FFFC41F20303217F9842627D1F
:103C1000A068236B40F28D80102840F08A80520308
:103C200042EA01421A4342F01C03012902BF226A00
:103C300002F1FF3243EA4243626A22B102F478722F
:103C4000A16A0A43134322684649D06801401046DE
:103C50001943D160FFF7F0FC936803F008030343B6
:103C600027D1D368217D23F4804323F0030343EA63
:103C70008133E16A0B43D36094F83830012B5ED175
:103C8000E36B1069591ED4E91036334343EA01430C
:103C9000A16C0B43344901400B4343F00103136112
:103CA00020461369616B23F070430B431361FFF7E8
:103CB000C5FEE3682268012B45D1116BA36921F091
:103CC0000F01013B0B431363636D23F0030343F0C8
:103CD00001036365284602B070BD9A68234922F04B
:103CE000104222F03F0242F080529A60204A12684D
:103CF000B2FBF1F201320192019A002A3FF450AF77
:103D0000019A013AF7E7002557E71A48FFF790FCB8
:103D100000287FF476AF184A9368616823F47C1317
:103D20000B4393606DE7B34201D08B42F3D1134A4A
:103D3000F2E7034343EA423343EA014375E7136979
:103D400023F00103ABE7136B23F00F03BBE7636DB5
:103D500043F0100363650125BCE700BF002002406B
:103D60000021024003C0F0FF1EF800FC400D0300DC
:103D7000040000240060025800630258002302403F
:103D8000806800F0010070478068C0F380007047D1
:103D9000002373B50193044690F850300D46164643
:103DA000012B3ED0012380F85030FFF711FE636DE8
:103DB000002833D123F48853226806F0804605F4A6
:103DC000803523F0020343F002036365164B9168CC
:103DD0000B4033432B4343F0004393609368002B25
:103DE00012DA019B013301930199104B9942F5D3EB
:103DF000636D012023F0120343F010036365002379
:103E000084F8503002B070BD636D23F0030343F0BB
:103E100001036365002384F85030F3E743F0100397
:103E2000F7E70220EEE700BFC0FFFE3F00F8C32522
:103E300070B590F850209AB003460C68012A54D00F
:103E400001222B4E80F8502000201D681690B542AC
:103E500017900ED12748FFF797FF06462846FFF731
:103E600093FF30430ED0596D104641F02001596543
:103E700023E0596D83F85000104641F02001596548
:103E80001AB070BD1C4AE4B190684E6820F44040FE
:103E9000304390602846FFF773FF05461548FFF74B
:103EA0006FFF054308D1896890680C4320F4716165
:103EB00021F00F010C4394600020002283F8502071
:103EC000DEE79168284621F440419160FFF758FFF2
:103ED00001460848FFF754FF0143EDD1916821F4F2
:103EE000716121F00F019160E6E70220C8E700BF91
:103EF0000020024000210240002302400749030243
:103F0000CA6803F4E06322F4E0621204120C134363
:103F100043F0BF6343F40033CB60704700ED00E033
:103F2000164B30B5DC68C4F30224C4F10703251D29
:103F3000042B28BF0423062D4FF0FF358CBF033C14
:103F4000002405FA03F3002805FA04F521EA030327
:103F500022EA050203FA04F343EA02034FEA0313D9
:103F6000DBB206DB00F1604000F5614080F8003311
:103F700030BD00F00F00024A1354F9E700ED00E0F5
:103F800014ED00E0002807DB0123410900F01F00C9
:103F9000024A834042F82130704700BF00E100E050
:103FA000F0B5DFF87CC10468876D644545D0594D94
:103FB000AC4242D01835AC423FD01835AC423CD070
:103FC0001835AC4239D01835AC4236D01835AC4231
:103FD00033D01835AC4230D005F55675AC422CD0F4
:103FE0001835AC4229D01835AC4226D01835AC4231
:103FF00023D01835AC4220D01835AC421DD018352E
:10400000AC421AD01835AC4217D0434DAC4214D054
:104010001435AC4211D01435AC420ED01435AC423C
:104020000BD01435AC4208D01435AC4205D0143551
:10403000AC4202D01435AC4267D1D0E919566E605B
:10404000C56E15B1D0E91C566E60644537D0314D50
:10405000AC4234D01835AC4231D01835AC422ED0F9
:104060001835AC422BD01835AC4228D01835AC42AC
:1040700025D01835AC4222D005F55675AC421ED07D
:104080001835AC421BD01835AC4218D01835AC42AC
:1040900015D01835AC4212D01835AC420FD01835B7
:1040A000AC420CD01835AC4209D01B4DAC4217D1F4
:1040B000C56D05F01F060125B5407D6009E0C56DA1
:1040C00005F01F063F25B540BD60256825F4802515
:1040D000256063608368402B18D1A260E16014E022
:1040E0000E4DAC42E4D01435AC42E1D01435AC42B4
:1040F000DED01435AC42DBD01435AC42D8D0143508
:10410000AC42D5D01435AC42D2D0F0BDA160E26053
:10411000FBE700BF28000240085402581C54025814
:10412000100002400368024623498B4210B531D08B
:1041300018318B422ED018318B422BD018318B4244
:1041400028D018318B4225D018318B4222D018311B
:104150008B421FD018318B421CD001F556718B4217
:1041600018D018318B4215D018318B4212D018312B
:104170008B420FD018318B420CD018318B4209D0B2
:1041800018318B4206D018318B4203D023F0FF0048
:10419000906510BDDCB218210848103CB4FBF1F169
:1041A00001F007015F2C415C23F47F7020F00300D5
:1041B000D16588BF0430EBE71000024010AF010862
:1041C00002682149D3B28A4228D014318A4225D0CC
:1041D00014318A4222D014318A421FD014318A42CB
:1041E0001CD014318A4219D014318A4216D01431AD
:1041F0008A4213D01821103BB3FBF1F31349114449
:10420000A8291ED903F18052012103F01F0302F5F2
:10421000024201FA03F30E4992000EE01422083B19
:104220000121B3FBF2F303F1B05203F01F0302F5D7
:10423000164201FA03F3074992008366C0E9182188
:1042400070470833DEE700BF08540258F0FBFDBF9B
:1042500080080240805802580279511E072910B583
:1042600021D80368134CA3421ED01434A3421BD0A0
:104270001434A34218D01434A34215D01434A342EA
:1042800012D01434A3420FD01434A3420CD01434EF
:10429000A34209D0084B1344084A9B00C0E91B32D3
:1042A00001238B40436710BD054B1344054A9B0017
:1042B000F4E700BF085402583F8200104009024052
:1042C0003F96001640590258F8B50446FFF782F9A8
:1042D0000646002C00F0EE802368834DAB426AD086
:1042E000824A934267D01832934264D01832934284
:1042F00061D0183293425ED0183293425BD01832AC
:10430000934258D01832934255D002F556729342D8
:1043100051D0183293424ED0183293424BD01832BB
:10432000934248D01832934245D01832934242D03B
:10433000183293423FD0183293423CD06C4A934299
:1043400040F057810222A16884F8352000224029DC
:1043500084F83420186820F4FF3020F4F87000F05E
:104360006681A1F18002514251418903D4E903627F
:10437000D20842EAD602666942EAD602A66942EA51
:10438000D602E66942EAD602266A42EA16120243D9
:1043900020461143574A19601A441423B2FBF3F222
:1043A0009200E265FFF7BEFEE36D03F01F020123FA
:1043B00093404360B4E00222AB4284F835204FF0D2
:1043C000000284F834201ED0484A93421BD0183291
:1043D000934218D01832934215D01832934212D01B
:1043E000183293420FD0183293420CD018329342B5
:1043F00009D002F55672934205D01832934202D08A
:1044000018329342FFD01A6822F001021A60226823
:104410001368DF0744D413683748A1691840D4E90A
:10442000023633432669334366693343E6690B43F7
:104430003343266A3343666A042E43EA000302BF0D
:10444000D4E90B07384303432C480068000C0004F0
:10445000B0F1005F0ED36068A0F12907052F07D9DE
:104460003F38132806D8264F27FA00F0C00701D599
:1044700043F480131360042E536923F0070343EAC7
:10448000060343D1A06AE66A0343002E3ED099B9E1
:10449000012821D030F0020138D1F10136D51EE0DB
:1044A000FFF798F8801B0528B1D920236365032303
:1044B00084F835300120F8BDB1F5005F22D1032822
:1044C00024D801A151F820F0DF4400089B440008E3
:1044D000DF440008D9440008B6F1C07F16D140235C
:1044E00063650123E4E700BF10000240280002409A
:1044F00008540258F8ABFDA73F8010FE0010005C86
:104500000F030F000228EAD90328C6D053612046C2
:10451000FFF708FEE36D03F01F023F239340836023
:104520002368AB4245D0454A934242D01832934269
:104530003FD0183293423CD01832934239D01832CF
:10454000934236D01832934233D01832934230D04F
:1045500002F5567293422CD01832934229D0183269
:10456000934226D01832934223D01832934220D05F
:10457000183293421DD0183293421AD01832934207
:1045800017D02F4A934214D01432934211D01432D0
:1045900093420ED0143293420BD01432934208D07F
:1045A0001432934205D01432934202D01432934213
:1045B00019D120460025FFF703FEA368226E802B49
:1045C00004BF002363606368D9B2013B1160072B0D
:1045D000D4E9192151602CD8FFF73EFEE36E1D602F
:1045E000D4E91C325A6000200123606584F835301C
:1045F00061E7144A93423FF4A5AE143293423FF46C
:10460000A1AE143293423FF49DAE143293423FF474
:1046100099AE143293423FF495AE143293423FF474
:1046200091AE143293423FF48DAE40233EE7102109
:104630009CE6C4E91B556567D5E700BF280002402A
:10464000085402581C54025870B5002800F00A8122
:1046500090F83440012C00F00781012480F83440A8
:1046600090F83540012C4FF0000440F0F680022510
:1046700080F835507D4D44650468AC421ED07C4EB8
:10468000B4421BD01836B44218D01836B44215D0F4
:104690001836B44212D01836B4420FD01836B4428D
:1046A0000CD01836B44209D006F55676B44205D07F
:1046B0001836B44202D01836B442FFD0266826F02D
:1046C00001062660FFF76CFCAC42026C53D0684BCD
:1046D0009C4250D018339C424DD018339C424AD053
:1046E00018339C4247D018339C4244D018339C4224
:1046F00041D018339C423ED003F556739C423AD0C9
:1047000018339C4237D018339C4234D018339C4223
:1047100031D018339C422ED018339C422BD0183302
:104720009C4228D018339C4225D0236823F00E03E6
:1047300043F00A032360002A56D14E4B9C4227D0F7
:104740004D4B9C4224D014339C4221D014339C42C4
:104750001ED014339C421BD014339C4218D0143307
:104760009C4215D014339C4212D02368002043F0A1
:104770000103236070BD236823F01E0343F016037A
:1047800023601AB1236843F008032360AC4230D1A0
:10479000036E1A68D2035BD4C36E1BB11A6842F46D
:1047A00080721A60AC42E0D0314B9C42DDD01833AD
:1047B0009C42DAD018339C42D7D018339C42D4D0D4
:1047C00018339C42D1D018339C42CED018339C422F
:1047D000CBD003F556739C42C7D018339C42C4D04B
:1047E00018339C42C1D0C0E7236843F00403236020
:1047F000A3E71F4B9C42CBD018339C42C8D0183340
:104800009C42C5D018339C42C2D018339C42BFD0C2
:1048100018339C42BCD018339C42B9D003F5567370
:104820009C42B5D018339C42B2D018339C42AFD0D2
:1048300018339C42ACD018339C42A9D018339C4208
:10484000A6D018339C42A3D018339C42A0D074E762
:104850001A6842F480721A609EE74FF4006380F891
:1048600034404365012085E7022083E710000240C1
:1048700028000240085402581C540258F8B5054656
:10488000FEF7A8FE074645B195F83530022B06D055
:1048900080236B65002385F834300120F8BD2C6837
:1048A000A94EB4424AD0A94B9C4247D018339C42EF
:1048B00044D018339C4241D018339C423ED0183328
:1048C0009C423BD018339C4238D018339C4235D0A0
:1048D00003F556739C4231D018339C422ED01833C6
:1048E0009C422BD018339C4228D018339C4225D0B0
:1048F00018339C4222D018339C421FD018339C425C
:104900001CD0236823F00E032360914B9C421FD0E0
:1049100014339C421CD014339C4219D014339C4253
:1049200016D014339C4213D014339C4210D014334D
:104930009C420DD014339C4212D109E02368B4424A
:1049400023F01E032360636923F08003636176D143
:104950002A6EB442136823F48073136040F0AB8076
:10496000236823F0010323602368DB0700F1CD8077
:104970002B68EA6DB342A86D02F01F0200F0D180EF
:1049800072498B4200F0CD8018318B4200F0C98013
:1049900018318B4200F0C58018318B4200F0C18085
:1049A00018318B4200F0BD8018318B4200F0B98085
:1049B00018318B4200F0B58001F556718B4200F042
:1049C000B08018318B4200F0AC8018318B4200F07F
:1049D000A88018318B4200F0A48018318B4200F07F
:1049E000A08018318B4200F09C8018318B4200F07F
:1049F000988018318B4200F09480012101FA02F274
:104A00004260534A934200F092801432934200F085
:104A10008E801432934200F08A801432934200F068
:104A200086801432934200F08280143293427ED00A
:104A3000143293427BD0143293427ED177E0434BC1
:104A40009C4285D018339C4282D018339C423FF45C
:104A50007FAF18339C423FF47BAF18339C423FF446
:104A600077AF18339C423FF473AF18339C423FF446
:104A70006FAF03F556739C423FF46AAF18339C4204
:104A80003FF466AF18339C423FF462AF18339C4248
:104A90003FF45EAF18339C423FF45AAF18339C4248
:104AA0003FF456AF18339C423FF452AF18339C4248
:104AB0003FF44EAF29E7254B9C423FF451AF1833EA
:104AC0009C423FF44DAF18339C423FF449AF18333A
:104AD0009C423FF445AF18339C423FF441AF18333A
:104AE0009C423FF43DAF18339C423FF439AF03F58D
:104AF00056739C423FF434AF18339C423FF430AFBE
:104B000018339C423FF42CAF2AE7FEF763FDC01B2D
:104B100005287FF629AF20236B65032385F8353000
:104B2000B8E63F21B34201FA02F2826012D1D5E920
:104B300019325A60EB6E002B3BD10123002085F81F
:104B4000353085F83400A9E6100002402800024004
:104B5000085402581B4A9342E9D018329342E6D0D7
:104B600018329342E3D018329342E0D01832934285
:104B7000DDD018329342DAD018329342D7D002F502
:104B800056729342D3D018329342D0D01832934207
:104B9000CDD018329342CAD018329342C7D01832BF
:104BA0009342C4D018329342C1D018329342BED03F
:104BB00027E71A6822F480721A60D5E91C325A601D
:104BC000BBE700BF2800024008B528B190F8353097
:104BD000022B03D08023436501205DE003683F4A38
:104BE000934251D0183293424ED0183293424BD058
:104BF0001832934248D01832934245D0183293422B
:104C000042D0183293423FD0183293423CD002F542
:104C10005672934238D01832934235D018329342AC
:104C200032D0183293422FD0183293422CD01832FF
:104C3000934229D01832934226D01832934223D07F
:104C40001A6822F00E021A601A6822F001021A6035
:104C5000234A934221D1026E136823F480731360B8
:104C6000D0E9161303F01F02012393404B60D0E9F3
:104C700019325A60C36E2BB31A6822F480721A601C
:104C8000D0E91C325A601DE0042280F835201A68F1
:104C900022F001021A60002008BD124A9342DAD0C5
:104CA00014329342D7D014329342D4D01432934268
:104CB000D1D014329342CED014329342CBD014329E
:104CC0009342C8D0012380F83530002380F8343077
:104CD000036D002BDFD09847DDE700BF10000240D6
:104CE000085402581C54025800232DE9F341019343
:104CF0000446294B294E1F680368856DB342D5F8D9
:104D00000080D5F800C04FD0254A93424CD01832CD
:104D1000934249D01832934246D01832934243D03E
:104D20001832934240D0183293423DD01832934209
:104D30003AD002F55672934236D01832934233D0AD
:104D40001832934230D0183293422DD01832934209
:104D50002AD01832934227D01832934224D01832E6
:104D6000934221D00F4A934240F00982E16D042022
:104D70001A6801F01F01884010EA0C0F00F026822B
:104D8000560740F123821104686040F11782D30373
:104D900000F11A82A36C7EE104000024100002409E
:104DA0002800024008540258E26D082002F01F0259
:104DB000904010EA080F3DD0B3422ED084498B4278
:104DC0002BD018318B4228D018318B4225D0183186
:104DD0008B4222D018318B421FD018318B421CD00D
:104DE00018318B4219D001F556718B4215D018310C
:104DF0008B4212D018318B420FD018318B420CD01D
:104E000018318B4209D018318B4206D018318B42B1
:104E100003D018318B4240F0C1801968C1F3800182
:104E200041B1196821F004011960A860616D41F079
:104E30000101616528FA02F1C80734D5B3422ED0CA
:104E400063498B422BD018318B4228D018318B42CA
:104E500025D018318B4222D018318B421FD0183107
:104E60008B421CD018318B4219D001F556718B4200
:104E700015D018318B4212D018318B420FD0183117
:104E80008B420CD018318B4209D018318B4206D09E
:104E900018318B4203D018318B4240F0838059691E
:104EA000090600F181800421914011EA080F32D0F7
:104EB000B3422DD0464883422AD01830834227D0AF
:104EC0001830834224D01830834221D018308342D6
:104ED0001ED0183083421BD01830834218D000F502
:104EE0005670834214D01830834211D01830834258
:104EF0000ED0183083420BD01830834208D01830BF
:104F0000834205D01830834202D01830834253D1F7
:104F10001868800752D41021914011EA080F5DD023
:104F2000B3422DD02A4A93422AD01832934227D036
:104F30001832934224D01832934221D0183293422F
:104F40001ED0183293421BD01832934218D002F56B
:104F50005672934214D01832934211D018329342B1
:104F60000ED0183293420BD01832934208D0183228
:104F7000934205D01832934202D01832934223D183
:104F80001A68C2F3C0024AB3A9601A68500340F11C
:104F90008A801B6819031DD4236C1CE01968C1F3B7
:104FA000C0013DE719687EE701219140A960616D6C
:104FB00041F00201616576E71968ACE7A960616DAF
:104FC00041F004016165A6E71A68C2F38002DAE7DE
:104FD00028000240A36C0BB120469847E16D2020C9
:104FE00001F01F01884010EA080F72D02368B34215
:104FF0002DD08D4A93422AD01832934227D01832AE
:10500000934224D01832934221D0183293421ED0BA
:10501000183293421BD01832934218D002F55672C0
:10502000934214D01832934211D0183293420ED0CA
:10503000183293420BD01832934208D01832934260
:1050400005D01832934202D01832934234D11A68F4
:10505000C2F30012002A3CD0A86094F83520042A3C
:105060001A682DD122F016021A605A6922F08002C5
:105070005A61226C0AB9A26C1AB11A6822F00802AD
:105080001A603F238B40AB60012384F83530002346
:1050900084F83430236D002B00F08D80204602B060
:1050A000BDE8F04118471A68D2053FF575AF1A6898
:1050B00022F008021A606FE71A68C2F34002C9E7DB
:1050C00055034DD51B68180357D4636C0BB12046AC
:1050D0009847636D002B6ED0636DD9073ED50423CE
:1050E00084F835302368B3421ED04F4A93421BD018
:1050F0001832934218D01832934215D01832934286
:1051000012D0183293420FD0183293420CD018327A
:10511000934209D002F55672934205D01832934259
:1051200002D018329342FFD04FF416511A68B7FBE1
:10513000F1F122F001021A60019A01328A420192D1
:1051400002D81A68D207F7D41B68DF074CBF0323C5
:10515000012384F83530002384F83430E36C9AE777
:105160001A6812F4807208D1196821F010011960D0
:10517000012384F8342084F83530E36BA6E72B4A0A
:1051800093423FF4F3AD143293423FF4EFAD143247
:1051900093423FF4EBAD143293423FF4E7AD143247
:1051A00093423FF4E3AD143293423FF4DFAD143247
:1051B00093423FF4DBAD02B0BDE8F081970603D423
:1051C0001A6822F004021A60236C64E70220884007
:1051D00010EA0C0F16D0960714D56860100403D59A
:1051E000D1030DD4636C56E712F0200208D1196880
:1051F00021F00A011960012384F8342084F8353045
:10520000E36B48E70820884010EA0C0FD3D0120760
:10521000D1D51A6822F00E021A60012303FA01F1B7
:105220006960636595E700BF280002401C5402587E
:10523000F0B5D1E900670C698D68F7B92C4344EAF1
:105240008644D1E9066535434E693543CE6835431A
:105250000E6A45EA0665866ED0F88400734300EB5B
:10526000830640F8234000200F4C75600836CB8938
:105270000432E35C834205D8F0BD34432C4344F050
:105280008044DEE712F8023C12F8015C1B0443EA9A
:10529000056312F8045C2B4312F8035C43EA052310
:1052A00033500430E3E700BF18AF01082DE9F04F99
:1052B00099B004464C22CC4905A815F073FC002C8B
:1052C00000F0B381C94B22689A4204BF03F5807392
:1052D000636094F8983003F0FF0223B9204684F805
:1052E0009920FDF7D9F92268936923F0100393619F
:1052F000FEF770F9054623689A69110700F1868167
:105300009A6942F001029A61FEF764F90546236842
:105310009A69D20740F18D819A6942F002029A613E
:10532000227C012A9A690CBF22F0400242F040021E
:105330009A61627C012A9A690CBF42F4804222F48D
:1053400080429A61A27C012A9A690CBF22F48052A1
:1053500042F480529A619A69A06822F44072024332
:105360009A619A6922F0A4029A611A6922F01002E5
:105370001A61E268012A40F063819A6942F00402EE
:105380009A61A269B0F5407F02F1FF31E26902F152
:10539000FF324FEA022242EA4162216A01F1FF3103
:1053A00042EA0102616901F1FF3142EA0142DA6138
:1053B0000ED1E26A511E226B013A120142EA012229
:1053C000A16A01390A43616A013942EA0142DA609D
:1053D000266E2EB1D3F8C020616E0A43C3F8C020F8
:1053E000D4F85CE0A26E16EB0E0F01920CD018A858
:1053F0000199D3F8C82000EB810122F0070251F88F
:105400004C1C0A43C3F8C820D4E910C20392BCF173
:10541000000F0CD018A80399D3F8BC2000EB810131
:1054200022F0070251F84C1C0A43C3F8BC20D4E90F
:105430001289B8F1000F0CD018A9D3F8BC2001EBE9
:10544000890122F0700251F84C1C42EA0112C3F8A3
:10545000BC20226DD4F854B0029262B118A9D3F8DE
:10546000BC2001EB8B0122F4E06251F84C1C42EAB3
:105470000122C3F8BC205D4A934204D161688A6866
:1054800022F003028A600022594D606BC4F89C2010
:10549000C4F894200122D4F83CA084F89820D3F8D2
:1054A00084202A4042EA8002C3F88420D3F8841082
:1054B000A26B21F47F0141EA0241C3F884108118F4
:1054C000D3F8887000F180502F4000F52C5047EA47
:1054D000810701EB4A01C3F888708000D3F8887017
:1054E00027F4FE0747EA0A47C3F88870D3F8A0708C
:1054F0002F4047EA8107C3F8A070D3F8A07027F4C3
:10550000FE0747EA0C47C3F8A070039F07FB0CFC9B
:10551000D3F8B07061442F4047EA8107C3F8B070F8
:10552000D3F8B07027F4FE0747EA0847C3F8B07015
:1055300009FB08F7D3F8AC8001EB070908EA050876
:10554000029948EA89080BFB01FBC3F8AC80D3F849
:10555000F08009EB0B01D4F8589008EA050848EAF6
:10556000810801EB4901C3F8F080D3F8F08028F4FA
:105570007C1848EA0948C3F8F080D3F8C08008EAEC
:10558000050848EA8101C3F8C010D3F8C01021F41F
:105590007C1141EA0E41C3F8C010D3F8C01021F0CD
:1055A0007C5141EA0661C3F8C01000EB8203019A06
:1055B000236703EBCA0302FB0EFE636703EB8C0356
:1055C0005643A36703EB8703E066E36703EB8B03B4
:1055D000C4F8803003EBC903C4F8843003EB8E03B6
:1055E00003EB860606E000BF70AC010800A0004097
:1055F0000300FFFFC4F88830204BC4F890609E423F
:1056000035D9D4F89C3043F0200309E0FDF7E2FFE0
:10561000401B0A287FF66FAED4F89C3043F001039C
:10562000C4F89C30032384F89830012019B0BDE8F9
:10563000F08FFDF7CFFF401B0A287FF668AEEBE73F
:10564000002A3FF49EAE022A0AD09969032A41F04B
:1056500080019961196941F0100119617FF491AEDF
:105660009A6942F020028BE6002340F8043BD4F80C
:1056700090309842F8D30020D8E700BFFCD3004018
:1056800010B590F89840012C0BD10468029840EABC
:10569000430040EA8202002042EA0111C4F880106F
:1056A00010BDD0F89C3043F00403C0F89C300120BA
:1056B000F6E790F89830012B0CD10268022380F8AD
:1056C0009830936923F0010393610023C0F89C3064
:1056D00018467047D0F89C3043F00403C0F89C3063
:1056E00001207047F8B590F898300446022B26D177
:1056F0000668D6F8C03013F07C5F07D1D0F89C3034
:1057000043F020030120C4F89C30F8BDD6F8C45003
:1057100015F4001504D0D0F89C3043F40073F1E781
:10572000D6F8C470C7F304473B46FFF781FD01225A
:105730002846BA40C6F8D020C4F89420E5E7D0F84F
:105740009C3043F00803DDE7F0B590F89840022C58
:1057500040F0A580402963D10468D4F8A05015F426
:10576000FE0F04D1D0F89C3043F0200307E0D4F8BA
:10577000A4506D0607D1D0F89C3043F48073C0F874
:105780009C300120F0BDD4F8A450EF0101D5D4F82D
:10579000A050D4F8A450446CC5F30525466F6C4363
:1057A00006EB8404276807F0804757602668002FBF
:1057B0005AD1C6F38A461660073454F8076CDFF8EE
:1057C000E8C006F00056966054F8076C06F00046F4
:1057D000166134F8036CD66154F8036C06F4702635
:1057E000D66054F8036C06F48016566154F8036CC6
:1057F00006F400169661267806F07F06166254F8C5
:10580000036CF60F56620026D7891CF80770B74262
:105810002DD8402902682FD1C2F8A8500020B1E746
:10582000412917D10468D4F8B05015F4FE0F99D06F
:10583000D4F8B4506E069ED0D4F8B450ED0101D522
:10584000D4F8B050D4F8B450C46CC5F30525866FB5
:105850006C43A5E7046D8C4284D9446DC56F4C43FD
:1058600005EB840400259DE726F06046A3E714F8C5
:10587000017F9F550136C7E7412902D1C2F8B850D0
:10588000CCE71F294FF0010303D88B40C2F89830B2
:10589000C4E701F01F018B40C2F89C30BEE7D0F88E
:1058A0009C3043F008036AE718AF010890F898307D
:1058B000013B012B2DD80368986D08421FD1D86D8C
:1058C00040F00100D865880504D5D3F8E000104306
:1058D000C3F8E000480504D5D3F8E4000243C3F858
:1058E000E42021F04042586D22F44012024300208F
:1058F0005A650C4A536943EA917353617047986D36
:1059000031EA000003D1D86D40F00200DAE703204D
:10591000D8E7D0F89C3043F00203C0F89C30012057
:10592000704700BF00A8004070477047704770473D
:1059300070477047704770477047704770477047AF
:1059400070477047704700002DE9F74FAB4982461A
:105950000C694A694FEA827B02680BEA847B146D0A
:10596000556D04EA0503146D556D03F4704304EAA4
:105970000509146D556D166D09F00F0904EA050847
:10598000546D176D2640546D556D08F0F008274092
:105990000193EB0506F0715607F06077146D08D59A
:1059A000E30506D54FF48073136500220A61FFF703
:1059B000C4FF680511D561050FD5DAF800204FF452
:1059C0008063D2F8DC00D2F8E410136500238B4A20
:1059D000014050461361FFF7ACFFBBF1000F0BD045
:1059E000DAF800200021504611654FEA9B71834A86
:1059F00011615946FFF798FF019B4BB1DAF800207F
:105A00000021504613657D4A11610199FFF78DFF12
:105A1000B9F1000F0AD0DAF8002000215046C2F890
:105A20005090764A11614946FBF702FAB8F1000F2F
:105A30000AD0DAF8002000215046C2F850806F4AA0
:105A400011614146FFF772FF2A050CD523050AD5DF
:105A5000DAF800204FF40061504611650021674AD2
:105A60001161FFF764FFA80511D5A1050FD5DAF87C
:105A700000204FF40073D2F8D800D2F8E01013657C
:105A800000235E4A014050461361FFF751FF2A038D
:105A90000CD523030AD5DAF800204FF40021504634
:105AA00011650021554A1161FFF744FFE8030CD549
:105AB000E1030AD5DAF800204FF480315046116531
:105AC00000214E4A1161FFF736FF6A030CD56303CC
:105AD0000AD5DAF800204FF48021504611650021E4
