:020000040800F2
:10000000000008248D3500080D3300080F33000868
:1000100011330008133300081533000800000000F6
:1000200000000000000000000000000041CC0008BB
:100030001733000800000000D1CC00084DB00008C4
:10004000DD350008DD350008DD350008DD35000848
:10005000DD350008DD350008DD350008DD35000838
:10006000DD35000819330008DD35000821330008AC
:100070002D33000839330008453300085133000898
:100080005D33000869330008DD350008753300086A
:1000900081330008DD350008DD350008DD35000856
:1000A000DD350008DD350008DD350008DD350008E8
:1000B000DD350008DD3500088D3300089933000870
:1000C000DD350008A5330008DD350008DD35000802
:1000D000DD350008B1330008C5330008D13300080E
:1000E000DD350008DD35000800000000DD350008C2
:1000F000DD350008DD350008DD350008DD3300089A
:10010000DD350008DD350008E9330008DD3500087D
:10011000DD350008DD350008DD350008DD35000877
:10012000F5330008013400080D34000819340008C4
:1001300025340008DD350008DD350008DD35000810
:1001400000000000000000000000000000000000AF
:1001500031340008DD350008DD3500083D34000885
:10016000DD350008DD350008DD350008DD35000827
:10017000DD350008DD350008DD350008DD35000817
:10018000DD350008DD350008DD350008DD35000807
:10019000DD350008DD350008DD350008DD350008F7
:1001A000DD350008DD350008DD350008DD350008E7
:1001B000DD350008DD350008DD350008493400086C
:1001C000DD350008DD350008DD350008DD350008C7
:1001D000DD350008DD350008DD350008DD350008B7
:1001E000DD350008DD350008DD350008DD350008A7
:1001F000DD350008DD350008DD350008DD35000897
:10020000DD350008DD350008DD350008DD35000886
:10021000DD350008DD350008DD350008DD35000876
:10022000DD350008DD350008DD3500080000000080
:10023000DD350008DD35000800000000DD35000870
:10024000DD3500085534000861340008DD3500084C
:10025000DD350008DD350008DD350008DD35000836
:10026000DD350008DD350008DD350008DD35000826
:10027000DD350008DD350008DD3500080000000030
:10028000DD350008DD350008DD3500080000000020
:0802900000000000DD3500084C
:1002A00010B5054C237833B9044B13B10448AFF3B0
:1002B00000800123237010BD6800002400000000AE
:1002C00094F0010808B5034B1BB103490348AFF391
:1002D000008008BD000000006C00002494F00108BC
:1002E00010F8012B11F8013B012A28BF9A42F7D0E0
:1002F000D01A704780F0004002E000BF81F000415A
:1003000042001FBF5FEA410392EA030F7FEA226CBB
:100310007FEA236C6AD04FEA1262D2EB1363C1BF4B
:10032000D218414048404140B8BF5B42192B88BFBA
:10033000704710F0004F40F4000020F07F4018BFDD
:10034000404211F0004F41F4000121F07F4118BFFD
:10035000494292EA030F3FD0A2F1010241FA03FCA5
:1003600010EB0C00C3F1200301FA03F100F000438D
:1003700002D5494260EB4000B0F5000F13D3B0F155
:10038000807F06D340084FEA310102F10102FE2AC4
:1003900051D2B1F1004F40EBC25008BF20F0010034
:1003A00040EA03007047490040EB0000013A28BFD3
:1003B000B0F5000FEDD2B0FA80FCACF1080CB2EB56
:1003C0000C0200FA0CF0AABF00EBC25052421843D4
:1003D000BCBFD0401843704792F0000F81F4000179
:1003E00006BF80F400000132013BB5E74FEA41034C
:1003F0007FEA226C18BF7FEA236C21D092EA030FB8
:1004000004D092F0000F08BF0846704790EA010F31
:100410001CBF0020704712F07F4F04D1400028BF5E
:1004200040F00040704712F100723CBF00F5000040
:10043000704700F0004343F0FE4040F40000704776
:100440007FEA226216BF08467FEA23630146420222
:1004500006BF5FEA412390EA010F40F48000704735
:100460004FF0000304E000BF10F0004348BF4042DB
:100470005FEA000C08BF704743F0964301464FF017
:1004800000001CE050EA010208BF70474FF0000373
:100490000AE000BF50EA010208BF704711F00043B4
:1004A00002D5404261EB41015FEA010C02BF844684
:1004B0000146002043F0B64308BFA3F18053A3F5E3
:1004C0000003BCFA8CF2083AA3EBC25310DB01FA2A
:1004D00002FC634400FA02FCC2F12002BCF1004FAE
:1004E00020FA02F243EB020008BF20F0010070473F
:1004F00002F1200201FA02FCC2F1200250EA4C0093
:1005000021FA02F243EB020008BF20EADC707047D8
:1005100053B94AB9002908BF00281CBF4FF0FF316A
:100520004FF0FF3000F06AB9ADF1080C6DE904CE70
:1005300000F006F8DDF804E0DDE9022304B07047BE
:100540002DE9F047089D0C46002B4ED194468C4572
:100550008646B2FA82F262D94AB1C2F120039140D2
:1005600020FA03F30CFA02FC194300FA02FE4FEAE8
:100570001C471FFA8CF6B1FBF7F44FEA1E4307FB4A
:10058000141143EA014304FB06F199420AD91CEB1A
:10059000030304F1FF3080F01281994240F20F8191
:1005A000023C6344591A1FFA8EF3B1FBF7F007FBC4
:1005B000101143EA014300FB06F69E420AD91CEBE8
:1005C000030300F1FF3180F0FC809E4240F2F9808D
:1005D000634402389B1B40EA044000211DB1D34014
:1005E0000022C5E90032BDE8F0878B4205D90DB184
:1005F000C5E9000100210846F5E7B3FA83F10029B7
:1006000046D1A34202D39042C0F0F080861A64EB38
:1006100003030120002DE6D0C5E90063E3E7002ACB
:1006200040F09080A1EB0C044FEA1C481FFA8CF7B5
:100630000121B4FBF8F64FEA1E4308FB164443EAD7
:10064000044307FB06F0984208D91CEB030306F1AC
:10065000FF3402D2984200F2CD8026461C1A1FFABF
:100660008EF3B4FBF8F008FB104443EA044300FBAC
:1006700007F79F4208D91CEB030300F1FF3402D2B5
:100680009F4200F2B0802046DB1B40EA0640A5E70F
:10069000C1F120068B4022FA06F71F4320FA06FC20
:1006A00004FA01F343EA0C03F44000FA01F8380CB1
:1006B0004FEA1349B4FBF0FE1FFA87FC00FB1E440F
:1006C00049EA04440EFB0CF9A14502FA01F20AD9E9
:1006D0003C190EF1FF3A80F08480A14540F2818000
:1006E000AEF1020E3C44A4EB09041FFA83F9B4FBFB
:1006F000F0F300FB134449EA044403FB0CFCA4455B
:1007000007D93C1903F1FF3067D2A44565D9023BF4
:100710003C4443EA0E40A0FB0293A4EB0C049C4231
:10072000CE469C4651D34ED055B1B8EB0E0364EB88
:100730000C0404FA06F6CB401E43CC40C5E9006425
:10074000002150E7C2F1200320FA03F10CFA02FC69
:1007500024FA03F394400C434FEA1C4800FA02FECB
:100760001FFA8CF7B3FBF8F008FB1031230C43EAB7
:10077000014300FB07F1994208D91CEB030300F188
:10078000FF362CD299422AD9023863445B1AA4B2AC
:10079000B3FBF8F108FB113344EA034401FB07F310
:1007A000A34208D91CEB040401F1FF3613D2A34283
:1007B00011D902396444E41A41EA004139E7044698
:1007C000F0E6084606E7C845AED2B9EB020E63EB89
:1007D000070C0138A8E73146EDE7034699E73046B4
:1007E000D4E7D6467FE7634402384DE70646234602
:1007F00008460FE7023E634430E700BF704700BF82
:10080000024C08B5204613F069F9FBE740010024CB
:10081000024C08B520461AF0B2F8FBE7B8030024F2
:10082000024C08B520460EF0FFFCFBE7FC18002444
:10083000024C08B5204614F038FDFBE78003002485
:10084000F0B4D0E90E3500249D421E4603D10020AD
:10085000F0BC1070704736680433671C8E4203D1B9
:10086000E1B2F0BC15F079BB3C46EDE7F0B4D0E95D
:100870000E3500249D421E4603D10020F0BC1070AE
:10088000704736680433671C8E4203D1E1B2F0BC76
:1008900015F063BB3C46EDE789001DF007BB09017D
:1008A0001DF004BB002808B506D001DA1DF0D2FB0C
:1008B000BDE808401DF01FBB08BD000013B5014690
:1008C0000DF107020A480EF02FF89DF80730044694
:1008D0005BB101460DF1070205480EF044F8002314
:1008E0002146038002480EF059F802B010BD00BF47
:1008F000FC18002407B501460DF1070206480EF06A
:1009000013F89DF80730014613B103480EF046F87E
:1009100003B05DF804FB00BFFC1800240146014849
:100920001AF010B8B8030024FFF7F8BFFFF7F6BFBE
:1009300030B59FB04C2200210BA81EF075FA202282
:10094000002103A81EF070FA022007F091F800239E
:100950000093394BDA6A22F00102DA62DB6A03F0B3
:1009600001030093354B9A6942F440429A619A69B7
:1009700002F440420092009A9A699504FCD5304AEC
:10098000D2F8F41041F00201C2F8F410D2F8F410D9
:1009900001F002010191019900210291996941F44C
:1009A000404199619B6903F440430293224BD96A09
:1009B00041F00101D962DB6A204903F0010302938F
:1009C000029B8B699C04FCD5936A01210C200825AD
:1009D00023F00303042443F0020393624FF48033B3
:1009E0005022CDE90B130223CDE914331693CDE940
:1009F00017230023CDE91B030BA81D93CDE9195440
:100A000007F05AF808B172B6FEE73F2203232146E9
:100A1000CDE9032340234FF48062CDE9050503A807
:100A2000CDE90733CDE9092307F074FB08B172B6AD
:100A3000FEE71FB030BD00BF000400580048025858
:100A40000044025800B5B1B0A022002108A81EF051
:100A5000EBF94FF408230322192101A8CDE9013253
:100A60000223CDE90313C0210A9307912821CDE980
:100A70000533CDE90B13CDE90D324FF440630F93ED
:100A80004FF000531C934FF48033299307F0C8FDB7
:100A900008B172B6FEE731B05DF804FB0268094B9D
:100AA0009A4210B5044601D102F0C8FD214606481D
:100AB00014F089F920B10448BDE8104014F054BB8B
:100AC00010BD00BF000C00408404002472B6FEE795
:100AD00010B50446006818B1A168091A1DF0E6F9BE
:100AE000204610BD30B50D6885B08368D0E900425E
:100AF00005604D680393002345608D68856001A8FB
:100B00008B60C1E90033CDE90142FFF7E1FF05B099
:100B100030BD10B504461046D4E900236FF0004400
:100B20009B1AE21A8A4201D21DF09AFA994238BF02
:100B300019465B1804D2A34228BF2346184610BDAD
:100B40002046FCE72DE9F84FD0E9008A93466FF084
:100B50006043AAEB080207468946B3EBA20F4FEAAF
:100B6000A20402D11F481DF07BFAC24514BF2246E1
:100B70000122A1EB0805A4182FD284B39C4228BF00
:100B80001C46A0001DF0B7F90646DBF80030002D2A
:100B9000735104DD2A46414630461EF02BF9AAEB7C
:100BA000090A0435BAF1000F354404DD52464946BE
:100BB00028461EF017FA5544B8F1000F06D0B96860
:100BC0004046A1EB08018910FFF766FEC7E9006502
:100BD00006EB8406BE60BDE8F88F1C46D1E72646CA
:100BE000D3E700BFFCF0010813B50446019215F0ED
:100BF0004FF9204615F0E6FAD4E90F13994205D0D3
:100C0000019B41F8043BE16302B010BD01AA04F16D
:100C10003800FFF797FFF7E710B50A46044641B1E1
:100C20000021012A00F8011B05D01444013A1EF0EE
:100C3000FBF8204610BD0446FBE700002DE9F84311
:100C400004460D4659B18268D0E90073D21AA3EB6D
:100C500007088A4205D31846FFF7DEFF6060BDE84B
:100C6000F883114AFFF755FF8146FFF71BFE29461F
:100C700006464044FFF7D0FFB8F1000F0AD04246C5
:100C8000394630461EF0B6F8A1683846C91B1DF03B
:100C90000DF901E0002FF7D14544266035444E445C
:100CA0006560A660DBE700BF16F1010810B50C1AFD
:100CB000134605D00146224618461EF09BF803460F
:100CC000181910BD70B5D1E9003604460D46F61A64
:100CD0000023C0E9003383603046FFF7E3FD06449C
:100CE0000246A660C4E90000D5E90001FFF7DEFF77
:100CF0006060204670BD0000CB072DE9F04304463C
:100D0000A3B012D512AB08AA402104F051FF0DF197
:100D1000070221462C480DF007FE9DF807300646D5
:100D200033B9014628480DF039FE23B0BDE8F08301
:100D300040209DF82080FFF7B5FD12AB00F1400781
:100D4000054604460DF1880C029004971A460834B3
:100D500003CA624544F8080C44F8041C1346F5D154
:100D60001A4A012102A80397FFF7D3FE8146FFF735
:100D700099FD2A460346044603F8018B52F8041BEA
:100D8000BA4243F8041BF9D1284640211DF08EF8E1
:100D900004F1410302944C4402A905A8039304946E
:100DA000FFF790FF0DF1070305AA3146064812F040
:100DB000B3F805A8FFF78CFE314603480DF0EEFDB1
:100DC00002A8FFF785FEB0E7FC180024FCF001083C
:100DD00008282DE9F74306461BD16548654D0CF000
:100DE00081F901220C21624814F0AAFA4FF0FF3178
:100DF00028680AF002FA0DF107024FF4E061284674
:100E000017F033FD9DF8073004462BB928680AF027
:100E100020FA03B0BDE8F083574908461DF002F9F7
:100E2000002848D1554954481DF0FCF8002844D109
:100E3000534951481DF0F6F8002840D151494E4819
:100E40001DF0F0F800283CD14F494B481DF0EAF85E
:100E5000002838D14D4948481DF0E4F8002834D125
:100E60004B4945481DF0DEF838B94A4942481DF063
:100E7000D9F8002814BF092600268DF8070000289D
:100E8000C4D02379B342C1D1043655F82630002BA3
:100E9000BCD0227A002AB9D061890022D3E90003AC
:100EA0008DF807201B1AB1EB231F4FEA23120ED334
:100EB00039481DF0D8F80026DFE70126DDE70226D5
:100EC000DBE70326D9E70426D7E70626D5E70B019B
:100ED00000EB0111C658E368D1E9018723B14FF057
:100EE000FF3118680AF089F92378CBB10123DFF8C4
:100EF000AC908DF807306379002B35D0E18869BB61
:100F0000D6E90032934218BF73607268D11A1ED1BD
:100F100001213046FFF792FE336899F800201A70DD
:100F2000637863B15FB163790BB1E38803B90123DF
:100F30001A4A4FF4E0614046B8478DF80700E3686D
:100F4000002B3FF463AF18680AF083F95EE70129CC
:100F5000E2D001339A4218BF7360DDE7324649445C
:100F60004846FFF7A3FEDBE799F800303370D7E778
:100F700080030024181A0024A8F50108A0F5010830
:100F800090F5010888F50108B0F5010898F5010809
:100F900080F5010878F5010830F10108000000240F
:100FA000F8B50023571A04460D4616468360C0E97B
:100FB000003302D508481DF053F83846FFF772FC9D
:100FC00007440246206031462846A760FFF76EFEC0
:100FD00060602046F8BD00BF7AF10108F7B502ABAA
:100FE00004460E4615468F1803E9060000239A4270
:100FF0008360C0E9003302DA08481DF031F810467A
:10100000FFF750FC05440246206039463046A56093
:10101000FFF74CFE6060204603B0F0BD7AF1010896
:101020002DE98048C1B0CF4D02F0DAFA0024FFF775
:101030007FFC0126FFF706FD1422002135A81DF0D4
:10104000F3FED5F8E03000224CF61C2143F01003EB
:10105000C5484FF008098027C5F8E030D5F8E030E2
:1010600003F010030793079BD5F8E03043F08003AB
:10107000C5F8E030D5F8E03003F080030893089B12
:10108000D5F8E03043F00103C5F8E030D5F8E030A2
:1010900003F001030993099BD5F8E03043F0040302
:1010A000C5F8E030D5F8E03003F004030A930A9B5A
:1010B000D5F8E03043F00203C5F8E030D5F8E03071
:1010C00003F002030B930B9BD5F8E03043F00803C9
:1010D000C5F8E030D5F8E03003F008030C930C9B22
:1010E00005F0BCF8002248F2B001A04805F0B6F8BF
:1010F000002201219E4805F0B1F800224FF4406122
:101100009C4805F0ABF8002201219B4805F0A6F8A9
:101110004CF61C2335A99448CDE93536CDE9374442
:1011200004F0AEFF48F2B00335A99048CDE935365A
:10113000CDE9374404F0A4FF35A98D48CDE93566E3
:10114000CDE9374404F09CFF4FF4406335A989484A
:10115000CDE93536CDE9374404F092FF35A986480C
:10116000CDE93566CDE9374404F08AFF4FF4041326
:1011700035A981483794CDE9359304F081FF2246A3
:101180000521092003F0FAF8092003F029F9D5F820
:10119000D8302246052133430B20C5F8D830D5F886
:1011A000D83033400593059BD5F8D83043F002037F
:1011B000C5F8D830D5F8D830704D03F00203069347
:1011C000069B03F0DBF80B2003F00AF92246052109
:1011D0000C2003F0D3F80C2003F002F9224605217D
:1011E0000D2003F0CBF80D2003F0FAF8224605217C
:1011F0000E2003F0C3F80E2003F0F2F8224605217A
:101200000F2003F0BBF80F2003F0EAF82246052177
:10121000102003F0B3F8102003F0E2F82246052175
:10122000112003F0ABF8112003F0DAF82246052173
:101230002F2003F0A3F82F2003F0D2F82246052137
:10124000382003F09BF8382003F0CAF82246052125
:10125000392003F093F8392003F0C2F82246052123
:101260003A2003F08BF83A2003F0BAF82246052121
:101270003B2003F083F83B2003F0B2F8224605211F
:101280003C2003F07BF83C2003F0AAF8224605211D
:10129000442003F073F8442003F0A2F81022214602
:1012A0002AA81DF0C1FD1C2221462EA82994CDE9B3
:1012B00027441DF0B9FD2C22214635A81DF0B4FDB0
:1012C0002F4B2846AC606C61AF61C5E9003445F630
:1012D000C053C5E9033408F083FC08B172B6FEE7D9
:1012E0004FF480582AA92846CDF8A88008F0F8FDC8
:1012F00008B172B6FEE7284608F0A2FC08B172B643
:10130000FEE7CDE92700299027A9284608F042FFEB
:1013100008B172B6FEE7602334904A462EA9CDE9A3
:101320002E30CDE93000CDE93200284608F052FDDC
:1013300008B172B6FEE74FF4005339903C9035A9DE
:101340003F90CDE93A304FF00073CDE93500CDE95B
:101350003700CDE93D30284608F066FF044688B1E5
:1013600072B6FEE70044025800100258000002580E
:101370000004025800080258000C025824230024DC
:10138000000001402846A94D01F096FC21461C2290
:1013900036A81DF049FD4FF0804335A9284630940A
:1013A000AC60AF6137963B96C5E900344FF0FF3330
:1013B000C5E90334032335930A23CDE92E44399339
:1013C0003D9308F06DFC08B172B6FEE72E902EA991
:1013D0003090284608F0DEFE044608B172B6FEE7FB
:1013E000014610222EA8924D1DF01EFD1C22214602
:1013F00035A8DFF868B22C94CDE92A441DF014FD1D
:1014000018232846AC60AF61C5E900B347F23053FA
:10141000C5E9033408F0E4FB08B172B6FEE72EA973
:101420002846CDF8B88008F05BFD08B172B6FEE73B
:101430007F4808F005FC08B172B6FEE72A902AA999
:101440002C907B4808F0A6FE024608B172B6FEE773
:1014500060233790399035A9CDE93530744808F0CC
:10146000B9FC08B172B6FEE7042235A9704808F04D
:10147000B1FC054608B172B6FEE76D4804276D4C15
:1014800001F01AFC1C22294635A8DFF8D4A1012658
:101490003095CDE92E551DF0C7FC4FF400132046C2
:1014A0002761A582A6612577656384F83850C4E971
:1014B00000A3C4E90255C4E90955C4E90B5502F07B
:1014C00081FD08B172B6FEE72E902EA9204602F0EB
:1014D000DDFE08B172B6FEE70623DFF8889103252A
:1014E0008DF8ED0035A9CDE9359340F2FF73CDE9D4
:1014F00039702046CDE9375302F074F9024608B13D
:1015000072B6FEE74C484FF014094C4B4FF00A08F6
:1015100012244FF04F0B03604FF0150A4FF4407345
:1015200002828274C263466185628466C0E90232C7
:10153000C0E90D22C0E91227C0E91427C0E916222C
:10154000C0E91882C0E9069BC0E90896C0E90BA56E
:10155000C0E9108404F0DEF84FF44073024608B18D
:1015600072B6FEE736483749028201608274C0E9EC
:1015700002324FF4B473C0E90569C0E90D32C0E925
:1015800007B9C0E90965C0E90BA5C0E90F28C0E9A2
:101590001142C0E91372C0E91572C0E91728C0E909
:1015A000192404F0B7F8034608B172B6FEE72648DE
:1015B000264A274D0362C0E90025C0E90236C0E98A
:1015C0000433C0E9063305F043F808B172B6FEE70C
:1015D00000211D4806F000FA014608B172B6FEE788
:1015E000194806F01FFA08B172B6FEE7194C012639
:1015F000194BA060C4E90360C4E90500C4E9070011
:101600002046C4E9003505F023F8014608B172B65A
:10161000FEE7204606F0E0F9014608B172B6FEE7A3
:10162000204606F0FFF9F8B172B6FEE7D822002492
:101630008C2200242C290024C427002400A0004070
:101640002427002400A40040D82600240054004091
:10165000B17570308C260024005800400004004012
:10166000002002402000F014A14CA24B2062C4E9EB
:101670000206C4E90400C4E906002046C4E90035B6
:1016800004F0E6FF014608B172B6FEE7204606F018
:10169000A3F9014608B172B6FEE7204606F0C2F98A
:1016A00008B172B6FEE7944C4FF4E133DFF878E20C
:1016B0002061C4E900E30C23C4E90200C4E9053059
:1016C000C4E90700C4E90900204609F052FB0146BD
:1016D00008B172B6FEE7204609F04FFC08B172B6B9
:1016E000FEE70021844809F068FC08B172B6FEE705
:1016F000814809F027FC08B172B6FEE77F4C0C2543
:101700007F4B4FF4E1362061C4E90200C4E9055083
:10171000C4E90700C4E909002046C4E9003609F01D
:1017200028FB014608B172B6FEE7204609F025FC09
:10173000014608B172B6FEE7204609F03EFC08B14A
:1017400072B6FEE7204609F0FDFB08B172B6FEE76F
:101750006C4C6D4BA062C4E90200C4E90405C4E905
:101760000600C4E908002046C4E9003609F001FB80
:10177000014608B172B6FEE7204609F0FEFB0146BD
:1017800008B172B6FEE7204609F017FC08B172B640
:10179000FEE7204609F0D6FB08B172B6FEE75B4BC8
:1017A000052181205A4CD3F8E0204FF4E1360C2576
:1017B00042F40012C3F8E0200022D3F8E03003F432
:1017C00000130493049B02F0D9FD812002F008FE6F
:1017D00000220521822002F0D1FD822002F000FECD
:1017E0004C4B2046C4E90036002319461A462361B3
:1017F000C4E90233C4E90553C4E90733C4E9093332
:1018000009F05EFB014608B172B6FEE7204609F01A
:10181000B4FB014608B172B6FEE7204609F0CDFBE5
:1018200008B172B6FEE7204609F08CFB08B172B62B
:10183000FEE7394C394BA062C4E90200C4E9040553
:10184000C4E90600C4E908002046C4E9003609F0EE
:1018500090FA014608B172B6FEE7204609F08DFB0A
:10186000014608B172B6FEE7204609F0A6FB08B1B2
:1018700072B6FEE7204609F065FB054608B172B670
:10188000FEE701461C2235A8254C1DF0CDFA4FF489
:101890000013DFF898C004262046A582266125772C
:1018A000656384F83850C4E900C30823C4E90235ED
:1018B0000123C4E90955A361C4E90B5502F082FB79
:1018C00008B172B6FEE70623164D03278DF8ED002A
:1018D00035A9CDE9355340F2FF73CDE93960204693
:1018E000CDE9377301F07EFF10B372B6FEE700BF9B
:1018F00040260024001C0058B02100242021002490
:101900000010014090200024004400400044025890
:101910000020002400480040701F002400140140F3
:10192000C82800240001802100500040002102400E
:101930001022002135A8354C1DF076FA34484EF6B9
:10194000602200230DF1B8082E93A360A361C4E9BF
:1019500000024FF6FF722046C8E90133C4E90323B1
:1019600008F03EF908B172B6FEE74FF4805335A98E
:101970002046359308F0B4FA08B172B6FEE72E900F
:1019800041463090204608F005FC044608B172B686
:10199000FEE7DFF8889001461C2235A81DF044FAC6
:1019A0004FF0080B1B494FF400130427012648464B
:1019B000A9F81440C9F81070C9F8186089F81C40DB
:1019C000C9F8344089F83840C9E90013C9E902B4BC
:1019D000C9E90944C9E90B4402F0F4FA08B172B646
:1019E000FEE70D4A062340F2FF748DF8ED0035A99D
:1019F000CDE935230323CDE939704846CDE93734A5
:101A000001F0F0FE054658B172B6FEE74022002410
:101A100000080040006002580000B8CF642800248D
:101A200022460146CE4802F0E1FB22462946CD4837
:101A300002F0DCFB224629464846CB4C02F0D6FB9E
:101A4000CA4816F006FFC94816F0C0FFC84BC94A7D
:101A5000C649C94800940CF028FFC7480DF0C2F9E8
:101A60002346C54AC149C3481AF0C6FBC24ABF490A
:101A7000C24815F037FAC14815F02CFF2246BB4981
:101A8000BB481AF069FDBA481BF018FABC4BBB4AB8
:101A9000B649BC48009417F04DFBBA4819F0ECFB6E
:101AA000B2492046DFF8189313F0F2FB204613F0FA
:101AB000E1FF48F200034A460221ADF860302046BB
:101AC000189BCDF85C9014F005F94FF48063DFF8B3
:101AD000F4A239462046ADF8683052461A9BCDF83C
:101AE00064A014F0F7F84FF4006352460321204637
:101AF000ADF870301C9BCDF86CA014F0EBF8A24B45
:101B00002946ADF8786020469F4A0AF5006A1D9381
:101B10001E9B14F0DFF848F2000352463146ADF840
:101B200080302046209BCDF87CA014F0D3F8ADF88F
:101B300088705246229B07212046CDF884A014F0DD
:101B4000C9F8ADF890B05246249B59462046CDF8CE
:101B50008CA014F0BFF84FF01003CDF894A08B4A7E
:101B600009219A46ADF89830269B204614F0B2F829
:101B7000ADF8A0A04A46289B0A212046CDF89C90AB
:101B800014F0A8F820234A460B212046ADF8AC30CB
:101B90000DF10C0A2B9BCDF8A89014F09BF8802334
:101BA000CDF8B8900DF14C090C21ADF8BC302046B1
:101BB00098E80C000DF1540814F08CF832464946B0
:101BC000434635A88DF84C60CDE90D96FFF706FA2F
:101BD000022335AA2946204614F0BFF835A8FEF79F
:101BE00077FF43463246494635A88DF84C60CDE92B
:101BF0000F96FFF7F3F9022335AA3146204614F079
:101C0000ACF835A8FEF764FF43463246494635A88E
:101C10008DF84C60CDE91196FFF7E0F9022335AA63
:101C20002046194614F099F835A8FEF751FF4346AF
:101C300035A88DF80C60CDE913A699E80600FFF7EA
:101C4000CDF9022335AA0321204614F086F835A8E1
:101C5000FEF73EFF02AB35A88DF80860CDE91536DA
:101C6000534698E80600FFF7B9F9022335AA39462A
:101C7000204614F072F835A8FEF72AFF204613F02C
:101C80008EFF20460BF038FA5946414808F080FA9A
:101C90003C21404807F031FE2346384A33493E484C
:101CA00012F05AFF3C4812F0A3FA06213A4811F00C
:101CB0008AFC4FF48071394814F076F9384A0221D1
:101CC0003648FEF791FF374A03213448FEF78CFF70
:101CD000354A05213148FEF787FF304926480CF088
:101CE0003FFF022124480CF059FE032122480CF04A
:101CF00055FE052120480CF051FE3E212B4814F0E2
:101D000053F92B4A2946294814F0EAFB294627486B
:101D100014F045FB2946254814F054FB2946234876
:101D200014F061FB214914480CF01AFF29461248AF
:101D30000CF034FE114B0D4A12491E4800940BF072
:101D4000D8FB4FF4FA6001F08BFC1B4A07210D48C9
:101D500019F0A6FF194A59460A4819F0A1FF33E0C5
:101D60002C290024C828002480030024181A0024E9
:101D700038190024B8040024FC180024A00400240E
:101D800084040024B8030024000C025800100258F8
:101D900024230024D822002440010024B019002468
:101DA00020210024701F0024902000245C190024AE
:101DB000C4270024F8020024D82600248C260024FE
:101DC00000000258000802582A460A21204819F04B
:101DD00067FF20480CF046FA1E480BF091FB1D48A7
:101DE0000BF006FC1B480BF02DFC0A2001F038FC20
:101DF00018480BF06FFC164817F0DEF90A2001F0C6
:101E00002FFC15481BF085FB09F02EF9134A2946D3
:101E1000134809F055F9134B134A29461860134823
:101E200009F04EF9124B134A29461860124809F07E
:101E300047F9124B124A29461860124809F040F936
:101E4000114B186004481BF065FB09F01FF9FEE711
:101E5000B8030024F80200248400002414F30108CD
:101E600001080008BC1A0024F0F20108110800085B
:101E7000B81A0024CCF2010821080008B41A002482
:101E8000A8F2010831080008B01A002410B50C1A95
:101E9000134605D00146224618461CF0ABFF034608
:101EA000181910BD2DE9F04F8BB000230C460146E8
:101EB0000DF10F0252480693CDE904330CF034FDC6
:101EC0009DF80F300546A3B101460DF10F024C48B5
:101ED0000CF03EFD0DF10F020746294648480CF074
:101EE00042FD9DF80F3080464BB9294644480CF01E
:101EF00055FD04A8FEF7ECFD0BB0BDE8F08F01889E
:101F0000A142F2D03A6803AB114428D2224407A878
:101F1000FFF746F804A807A9FEF7E4FD07A8FEF7B7
:101F2000D7FD04A907A8FEF7CDFE0DF10F0307AA00
:101F30002946334810F0F0FF044607A8FEF7C8FD15
:101F4000B8F80030E018D7E9002380B29B1AA8F84F
:101F50000000984224BFC01AA8F80000C5E77A68BC
:101F600007A8FFF71DF807A904A8FEF7BBFD07A8FF
:101F7000FEF7AEFDD7F8009009EB040BCB45D0D0AF
:101F8000069BDDE904A69A1BA24210D332465946AD
:101F90004846FEF78BFE3219314630460592FFF770
:101FA00075FF324649464846FEF780FEB9E72146AE
:101FB000144A04A80193FEF7ACFD0090FEF772FCF2
:101FC0003146024604465046FFF760FF5946024636
:101FD0004846FEF76BFE314602463046FFF756FF95
:101FE0000646BAF1000F05D0019B5046A3EB0A014B
:101FF0001BF05CFF009BCDE904461C44069490E76F
:10200000FC180024ABF1010810B50446806B20B128
:10201000216C091A8910FEF73FFCA06820B12169E4
:10202000091A8910FEF738FC204610BD70B5044629
:10203000C06A18B1616B091A1BF038FF206A20B121
:10204000A16A091A0911FEF72AFC606920B1E16949
:10205000091A0911FEF723FCD4E90256AE4207D152
:10206000A06818B12169091A1BF020FF204670BD35
:1020700005F110002035FEF72BFDEFE770B50446A3
:10208000D0E90C56AE4212D1206B18B1A16B091ADF
:102090001BF00CFF606A20B1E16A091A8910FEF793
:1020A000FBFB04F11800FEF713FD204670BD281D50
:1020B0001435FEF70DFDE5E770B50446806920B1E3
:1020C000216A091A8910FEF7E7FBD4E90356AE42EC
:1020D00007D1E06818B16169091A1BF0E7FE2046D4
:1020E00070BD05F11C00FEF7F3FC286918B1A96961
:1020F000091A1BF0DBFE686818B1E968091A1BF0C1
:10210000D5FE2835E3E710B50446D0F88C0028B199
:10211000D4F89410091A0911FEF7C1FBD4F8800015
:1021200028B1D4F88810091A0911FEF7B8FB606FBE
:1021300020B1E16F091A0911FEF7B1FBA06E20B1C1
:10214000216F091A0911FEF7AAFBE06D20B1616E3B
:10215000091A0911FEF7A3FB206D20B1A16D091A20
:102160000911FEF79CFB606C20B1E16C091A0911A2
:10217000FEF795FBA06B20B1216C091A0911FEF73F
:102180008EFB606820B1E168091A0911FEF787FB30
:10219000204610BD70B50446D0E90056AE4207D1C6
:1021A000206818B1A168091A1BF080FE204670BD96
:1021B000686920B1E969091A8910FEF76DFBA86802
:1021C00018B12969091A1BF071FE2035E6E770B5D0
:1021D0000446D0E90056AE4207D1206818B1A16884
:1021E000091A1BF063FE204670BD28460C35FEF729
:1021F0006FFCF0E710B50446006820B1A168091A29
:102200008910FEF749FB204610BD10B50446006852
:1022100018B1A168091A1BF049FE204610BD000044
:10222000094B10B5044640F82C3BFFF7EEFF04F1D4
:102230002000FFF7CCFF04F11000FEF749FC201D41
:10224000FFF7C5FF204610BDC4F3010810B50446D2
:10225000006818B1A168091A1BF028FE204610BDBD
:102260002DE9F84304460F46BC4201D1BDE8F8838E
:10227000D4E90358A84507D1E06818B16169091A83
:102280001BF014FE1834EFE7D5E90569B14507D115
:10229000686918B1E969091A1BF008FE2835E9E7F1
:1022A00006F10C001836FFF7D1FFEFE7F8B504464A
:1022B0000E46B44200D1F8BDD4E91C57AF4218D144
:1022C000206F18B1A16F091A1BF0F0FD606E20B1EC
:1022D000E16E091A8910FEF7DFFAD4E91601FFF75B
:1022E000BFFFA06D18B1216E091A1BF0DFFD7C3411
:1022F000DFE705F114002035FFF7A8FFDEE710B592
:102300000446D0F8B00020B1D4F8B810091A1BF078
:10231000CDFDD4F8A40020B1D4F8AC10091A1BF0FC
:10232000C5FDD4F8980020B1D4F8A010091A1BF00C
:10233000BDFDD4F88C0020B1D4F89410091A1BF01C
:10234000B5FDD4F8800020B1D4F88810091A1BF02C
:10235000ADFD04F14C00FFF74DFF206C18B1A16CEE
:10236000091A1BF0A3FD606B20B1E16B091A8910FB
:10237000FEF792FA04F12800FFF747FF04F11C0072
:10238000FEF7A6FBD4E90401FFF790FF206918B11E
:10239000A169091A1BF08AFD204610BD2DE9F84FEE
:1023A000D0E9008A93466FF06043AAEB0802074623
:1023B0008946B3EBA20F4FEAA20402D11F481BF0DB
:1023C0004FFEC24514BF22460122A1EB0805A41806
:1023D0002FD284B39C4228BF1C46A0001BF08BFD6B
:1023E0000646DBF80030002D735104DD2A464146D5
:1023F00030461CF0FFFCAAEB090A0435BAF1000FC5
:10240000354404DD5246494628461CF0EBFD554450
:10241000B8F1000F06D0B9684046A1EB0801891059
:10242000FEF73AFAC7E9006506EB8406BE60BDE830
:10243000F88F1C46D1E72646D3E700BFFCF0010821
:1024400013B50446019213F023FD204613F0BAFEA3
:10245000D4E90F13994205D0019B41F8043BE16395
:1024600002B010BD01AA04F13800FFF797FFF7E7AB
:102470002DE9F04F394891B016F0B4F9384D39488C
:1024800014F020FB384E394813F000FF384C284632
:10249000384F1AF059F830460CF0FAF9DFF800819D
:1024A0002046DFF8009119F0CEFE384614F001FF07
:1024B000DFF8F4A03049404612F064FC484616F0BC
:1024C0004AFD504612F0D6FE2C480BF011F84FF49E
:1024D00080422B4B10A9ADF824202A4A0E930A9271
:1024E00001220C93ADF82C204FF40072DFF8BCB041
:1024F000ADF834204FF40062ADF83C20224A079238
:1025000005AA11E9030082E8030003AADDE90C0132
:1025100082E8030001AADDE90A0182E80300099AC2
:102520004FF0804158460092184A10F0FCFF184BBB
:10253000184A1949184619F087FF154B2A460749CA
:1025400000941648CDE905B33346CDE9039ACDE9A9
:1025500001781AF0CBFF11B0BDE8F08F181A0024F3
:1025600038190024B0190024FC1800245C19002438
:10257000B8040024A004002440220024F80200240F
:1025800000100258000402582C2900243C0001408D
:10259000AC000024380400403404004084000024CF
:1025A00084040024B8030024800300244001002494
:1025B00010B52B48FFF71EFE2A48FFF725FD2A48D5
:1025C000FFF722FD2948FFF71FFD2948FFF72EFDE1
:1025D0002848FFF794FE284B186918B19969091A21
:1025E0001BF064FC2548FFF7D5FD254C2548FFF777
:1025F00045FD2548FFF760FD244BA06C236018B112
:10260000216D091A1BF052FC214BA06B236020B1F5
:10261000216C091A8910FEF73FF91E4C1848FFF784
:10262000FFFD1D4B204640F85C3BFEF751FA04F1DC
:102630005000FEF74DFA04F14400FEF749FA174B3B
:10264000A06B236020B1216C091A8910FEF724F9D0
:102650001048FFF7E5FD1248FFF755FD10BD00BF1C
:102660009002002440020024FC010024B801002450
:1026700080030024B803002484040024AC04002454
:102680005C190024FC18002438190024F8F3010810
:1026900070F20108B019002434F4010854F2010862
:1026A000181A00240A4B82B00F216FF00100D3F8F2
:1026B000F42042F00202C3F8F4200022D3F8F430F0
:1026C00003F002030193019B02B001F057BE00BF6B
:1026D000004402581422002110B58AB004460DEBC4
:1026E00002001CF0A1FB2368334A934229D1334AEC
:1026F00013680133012B13600CD1314BD3F8D82070
:1027000042F02002C3F8D820D3F8D83003F02003D9
:102710000093009B2A4B02212A48D3F8E02042F084
:102720000202C3F8E020D3F8E03003F00203019383
:10273000019B0323CDE9051305A903F0A1FC0AB011
:1027400010BD214A934226D11C4A13680133012B44
:1027500013600CD11A4BD3F8D82042F02002C3F8F2
:10276000D820D3F8D83003F020030293029B144BF7
:1027700005A91648D3F8E02042F00402C3F8E0208F
:102780002022D3F8E03003F004030393039B0323D8
:10279000CDE90523D1E70E4A9342D0D1084BD3F8B7
:1027A000E02042F08072C3F8E020D3F8E03003F07C
:1027B00080730493049BC2E7002002409429002404
:1027C0000044025800040258002102400008025848
:1027D000006002581422002110B58AB004460DEBA7
:1027E00002001CF021FB2368374A934236D1374A56
:1027F00013680133012B13600CD1354BD3F8EC2057
:1028000042F48072C3F8EC20D3F8EC3003F4807308
:102810000193019B2E4B4FF4C0510320D3F8E020CD
:1028200042F00102C3F8E020D3F8E03003F00103E6
:102830000293029B0223CDE90513092305A9CDE9E3
:102840000803244803F01CFC13200022052101F09A
:1028500095FD132001F0C4FD0AB010BD1E4A93423D
:10286000FAD11A4A13680133012B13600CD1184BAB
:10287000D3F8EC2042F48072C3F8EC20D3F8EC30AB
:1028800003F480730393039B114B05A91348D3F8FA
:10289000E02042F00202C3F8E0204FF44052D3F8A7
:1028A000E03003F002030493049B0223CDE90523E7
:1028B00008930923099303F0E3FB14200022052168
:1028C00001F05CFD1420C5E700A000409029002421
:1028D000004402580000025800A4004000040258BE
:1028E00070B5BAB004461422002106A81CF09CFA68
:1028F000BC2200210BA81CF097FA23689D4A934242
:1029000068D108230BA80B9305F08AFE08B1FEF7E7
:10291000DDF8994D4FF4407100269848D5F8E03025
:1029200043F00203C5F8E030D5F8E03003F00203CD
:102930000093009B1223CDE90613042306A90A93F2
:10294000CDE9086603F09CFBD5F8E8308C4843F4E9
:102950000013C5F8E830D5F8E8308A4D03F40013C9
:102960000193019B2223C5E9000340232846C5E9C2
:1029700002364FF48063C5E90666C5E90436C5E949
:10298000086601F0CFFE08B1FEF7A0F87E4A2123C9
:10299000A563AC637D4DC5E9002300234FF480623D
:1029A0002846C5E90233C5E90423C5E90633C5E96C
:1029B000083301F0B7FE08B1FEF788F81F200022A7
:1029C0000521E563AC6301F0D9FC1F2001F008FD8F
:1029D0003AB070BD6E4A934266D108230BA80B93A0
:1029E00005F01EFE08B1FEF771F8634D4FF4406C20
:1029F00000266248D5F8E03006A943F00203C5F886
:102A0000E030D5F8E03003F002030293029B12237A
:102A1000CDE906C30423CDE908660A9303F030FB31
:102A2000D5F8E830DFF88CE143F48003C5F8E830EE
:102A3000D5F8E830574D03F4800328460393039BF1
:102A40002423C5E900E34023C5E902364FF480633F
:102A5000C5E90666C5E90436C5E9086601F062FE07
:102A600008B1FEF733F82323A5634B4E4FF4806281
:102A7000AC634A4DC5E9006300232846C5E902332B
:102A8000C5E90423C5E90633C5E9083301F04AFE68
:102A900008B1FEF71BF8212000220521E563AC6395
:102AA00001F06CFC212091E73D4A934290D1102324
:102AB0000BA80B9305F0B4FD08B1FEF707F82E4DF7
:102AC000C02100262D48D5F8E03043F00203C5F8B8
:102AD000E030D5F8E03003F002030493049B1223A6
:102AE000CDE90613062306A90A93CDE9086603F08B
:102AF000C7FAD5F8F4302B4843F08003C5F8F4301A
:102B0000D5F8F430284D03F080032E620593059B21
:102B10000E23C5E9000340232846C5E902364FF4D9
:102B20008063C5E90666C5E9043601F0FBFD08B11E
:102B3000FDF7CCFF1D4A0D23A563AC631C4DC5E911
:102B4000002300234FF4806228462B62C5E902333C
:102B5000C5E90423C5E9063301F0E4FD08B1FDF73A
:102B6000B5FF5F2000220521E563AC6301F006FCA0
:102B70005F202BE700540040004402580004025834
:102B800010040240C82500242804024050250024D7
:102B900000580040D8240024580402406024002437
:102BA000001C005808540258E82300241C54025802
:102BB00070230024400402401FB503681F4A93425B
:102BC0000FD11F4BD3F8F02042F00102C3F8F020E0
:102BD000D3F8F03003F001030193019B05B05DF8D9
:102BE00004FB184A93420DD1154BD3F8E82042F06C
:102BF0000202C3F8E820D3F8E83003F0020302939E
:102C0000029BEBE7104A9342E8D10D4B05211E20B1
:102C1000D3F8E82042F00402C3F8E8200022D3F8F9
:102C2000E83003F004030393039B01F0A7FB1E208D
:102C300005B05DF804EB01F0D3BB00BF000001401C
:102C400000440258000400400008004010B588B05D
:102C500004461422002103A81CF0E6F82368B3F10F
:102C6000804F22D1124B03A91248D3F8E82042F03A
:102C70000102C3F8E820D3F8E82002F00102019233
:102C8000019AD3F8E02042F00102C3F8E0200322C9
:102C9000D3F8E03003F001030293029B0223CDE955
:102CA00003230123079303F0EBF908B010BD00BF25
:102CB000004402580000025810B588B0044614229F
:102CC000002103A81CF0B0F823681A4A934219D1D6
:102CD000194B4FF400511948D3F8E02042F010028C
:102CE000C3F8E020D3F8E03003F010030193019B18
:102CF0000223CDE90313012303A9079303F0C0F9CD
:102D000008B010BD0E4A9342FAD10B4B03A90D48EF
:102D1000D3F8E02042F00202C3F8E0203022D3F8DA
:102D2000E03003F002030293029B0223CDE9032368
:102D30000793E3E7000001400044025800100258E6
:102D40000004004000040258F0B5C1B0044614224B
:102D500000210CA81CF068F8BC22002111A81CF06E
:102D600063F82368AB4A93427AD1022311A81193E6
:102D700005F056FC08B1FDF7A9FEA74B0026082573
:102D80000227D3F8E8200CA9A44842F48012C3F823
:102D9000E820D3F8E82002F480120092009AD3F8D9
:102DA000E02042F00402C3F8E020D3F8E02002F073
:102DB00004020192019AD3F8E02042F00802C3F81D
:102DC000E020D3F8E030109503F008030293029B53
:102DD0004FF48053CDE90E66CDE90C3703F050F97E
:102DE00004238F480CA910958E4DCDE90C37CDE901
:102DF0000E6603F045F94223DFF858E22846C5E99C
:102E000000E34023C5E902364FF48063C5E9066656
:102E1000C5E90436C5E9086601F084FC08B1FDF790
:102E200055FE4123DFF830C2A5674FF48062AC63E2
:102E30007D4DC5E900C300232846C5E904234FF4AE
:102E40008072AB616B62C5E90233C5E9072301F00B
:102E500069FC08B1FDF73AFEE567AC6341B0F0BD2F
:102E6000724A934269D1012311A8119305F0D8FB4E
:102E700008B1FDF72BFE684B4FF4C06000260CA98B
:102E8000D3F8F0206A4D42F010026A4FC3F8F020E8
:102E9000D3F8F02002F010020392039AD3F8E02056
:102EA00042F00102C3F8E020D3F8E03003F0010360
:102EB0000493049B0223CDE90C0307235E4810937F
:102EC000CDE90E6603F0DCF82A232846C5E9007335
:102ED0004023C5E902364FF48063C5E90666C5E9BB
:102EE0000436C5E9086601F01DFC08B1FDF7EEFDEA
:102EF00029235249A5674FF48062AC63504DC5E960
:102F0000001300232846C5E904234FF48072AB6107
:102F10006B62C5E90233C5E9072301F003FC08B180
:102F2000FDF7D4FD252000220521E567AC6301F003
:102F300025FA252001F054FA90E7424A934240F0E6
:102F40008F80022311A8119305F06AFB08B1FDF7E9
:102F5000BDFD314B4FF00C0E00263748D3F8E8206A
:102F60000CA9394D42F40032C3F8E820D3F8E82028
:102F700002F400320592059AD3F8E02042F00102F3
:102F8000C3F8E020D3F8E03003F001030693069B7A
:102F90000223CDE90CE30723CDE90E66109303F07D
:102FA0006FF82C23294A2846C5E900234023C5E9A8
:102FB00002364FF48063C5E90666C5E90436C5E903
:102FC000086601F0AFFB08B1FDF780FD2B23DFF8A9
:102FD0008CC0A5674FF48062AC631D4DC5E900C38A
:102FE00000232846C5E904234FF48072AB616B626D
:102FF000C5E90233C5E9072301F094FB08B1FDF7E9
:1030000065FD262000220521E567AC6301F0B6F9D5
:1030100026208FE700500040004402580008025864
:10302000000C0258F81E0024801E002400100140ED
:10303000081E002410000240000002582800024030
:10304000901D002400440040181D00244000024050
:10305000A01C002470040240880402405800024072
:10306000764A93427ED1022311A8119305F0D8FA33
:1030700008B1FDF72BFD724B002602270725D3F878
:10308000E8200CA96F4842F48022C3F8E820D3F866
:10309000E82002F480220792079AD3F8E02042F059
:1030A0000202C3F8E020D3F8E02002F00202089206
:1030B000089AD3F8E02042F00802C3F8E020D3F8E1
:1030C000E030109503F008030993099B4FF4804307
:1030D000CDE90E66CDE90C3702F0D2FF4FF4407314
:1030E00059480CA91095594DCDE90C37CDE90E661C
:1030F000574F02F0C5FF2E232846C5E90073402331
:10310000C5E902364FF48063C5E90666C5E90436B1
:10311000C5E9086601F006FB08B1FDF7D7FC2D23D1
:103120004C4EA5674FF48062AC634B4DC5E900631C
:1031300000232846C5E904234FF48072AB616B621B
:10314000C5E90233C5E9072301F0ECFA08B1FDF740
:10315000BDFC272000220521E567AC6301F00EF9D4
:103160002720E7E63D4A93427FF478AE012311A879
:10317000119305F055FA08B1FDF7A8FC304BC021BA
:1031800000263748D3F8F020364D42F02002C3F82D
:10319000F020D3F8F02002F020020A920A9AD3F825
:1031A000E02042F00402C3F8E020D3F8E03003F05E
:1031B00004030B930B9B0223CDE90C1307230CA9EB
:1031C0001093CDE90E6602F05BFF27484823C5E95E
:1031D000000340232846C5E902364FF48063C5E961
:1031E0000666C5E90436C5E9086601F09BFA08B130
:1031F000FDF76CFC1D4A4723A567AC631C4DC5E970
:10320000002300234FF480622846AB616B62C5E95E
:1032100004234FF48072C5E90233C5E9072301F0A6
:1032200081FA08B1FDF752FC472000220521E5672D
:10323000AC6301F0A3F847207CE600BF00480040E3
:103240000044025800040258000C0258281C0024B4
:103250007000024088000240B01B002400140140AE
:1032600000080258381B0024A0000240B8000240A9
:10327000C01A00240F2810B504468AB002D90120D4
:103280000AB010BD01460022322001F077F832204A
:1032900001F0A6F8184B694602A81C60174BD3F83A
:1032A000E82042F00802C3F8E820D3F8E83003F041
:1032B00008030193019B05F099F8079BC3B905F03A
:1032C00071F80F4C0F4B236040F2E733E3600E4B75
:1032D000B0FBF3F001380023606020462361A36057
:1032E00006F07EFC0028CAD1204606F0AFFAC7E7F8
:1032F00005F058F84000E4E71000002400440258AC
:1033000098290024000C004040420F00FEE7FEE731
:10331000FEE7FEE7FEE77047082002F0A4BF0000CA
:10332000014801F00FBF00BF081E0024014801F052
:1033300009BF00BF901D0024014801F003BF00BF7A
:10334000181D0024014801F0FDBE00BFA01C002490
:10335000014801F0F7BE00BF281C0024014801F01D
:10336000F1BE00BFB01B0024014801F0EBBE00BF5E
:10337000381B0024014802F01BBD00BFC4270024F5
:10338000014802F015BD00BF24270024014806F0C3
:1033900011BB00BF40220024014803F053BD00BF11
:1033A000D8260024014803F04DBD00BF8C26002420
:1033B00010B5034C204607F06BF8D4F88C3010BDE4
:1033C00020210024014807F063B800BF90200024AA
:1033D000014807F05DB800BF00200024014801F05B
:1033E000B1BE00BFC01A0024014806F0E3BA00BF16
:1033F00098290024014801F0A5BE00BFC82500247B
:10340000014801F09FBE00BF50250024014801F093
:1034100099BE00BFD8240024014801F093BE00BF2C
:1034200060240024014801F08DBE00BFF81E002476
:10343000014801F087BE00BF801E0024014807F04C
:1034400027B800BF701F0024014803F0FBBC00BF79
:1034500040260024014801F075BE00BFE823002487
:10346000014801F06FBE00BF7023002401207047A7
:1034700008B51BF08BFD162303604FF0FF3008BD2D
:1034800008B51BF083FD16230360FEE70B4A0346D5
:10349000116810B509B90A491160106809490A4C48
:1034A0000344091B8B4206D91BF070FD0C230360FB
:1034B0004FF0FF3010BD1360FCE700BFE42900248B
:1034C000707500240000082400040000254AD2F88A
:1034D000883043F47003C2F88830234A136803F03D
:1034E0000F03062B05D8136823F00F0343F00703DF
:1034F00013601E4B1A6842F001021A6000221A6122
:103500001B4A19680A4018491A600A68120705D54B
:103510000A6822F00F0242F007020A6000221549F1
:103520009A61DA611A6299621349D962134919637F
:103530005A639963DA6319645A64196821F4802123
:1035400019601A660E4B1B681B0C1B04B3F1005F5D
:1035500003D20C4B0122C3F808210B4B43F2D202D9
:103560001A60704700ED00E000200052004402584D
:103570007FEDF6EA000202020000FF018002010175
:103580000010005C0080005100400052DFF834D091
:10359000FFF79CFF0C480D490D4A002302E0D45868
:1035A000C4500433C4188C42F9D30A4A0A4C00238D
:1035B00001E013600432A242FBD31BF0EDFCFDF7E7
:1035C0002FFD70470000082400000024680000243C
:1035D00020F801086800002470750024FEE7000050
:1035E00010B5032000F0B8FE04F0F2FC0F49104AB9
:1035F0008B69C3F30323D35C03F01F03D8408B69AB
:1036000003F00F03D35C0B4A03F01F0320FA03F30C
:103610001360094B18600020FFF72CFE044618B910
:10362000FFF740F8204610BD0124FBE70044025894
:1036300038F301080400002408000024034A044B66
:1036400011681B780B441360704700BFE829002401
:103650000C000024014B1868704700BFE8290024C3
:1036600038B50446FFF7F6FF0546631C1EBF044B42
:103670001B78E418FFF7EEFF431BA342FAD338BDD3
:103680000C000024014B1868000C70470010005C0F
:1036900030B5CC0D1430C1F30451072504F00404F7
:1036A0008D408A40035923EA05031343035130BD7B
:1036B000806800F0010070478068C0F380007047A8
:1036C0000368434A93422DE9F04104460E461ED05A
:1036D00002F1C0523F48404902F58642834208BF8A
:1036E0000A4625699768082D07F01F0724D040F285
:1036F0002122FA40D1070CD5DB6813F0010F1AD054
:10370000636D012043F020036365BDE8F081324A18
:10371000E7E72F4A93420CD002F1C0522D482E49C0
:1037200002F58642834208BF0A46936813F4404F6D
:10373000E5E7294AF9E70425FFF78CFF804623686F
:103740001A682A4225D0626D42F400726265DA6816
:1037500012F4406F0FD1627D6AB91A6816070AD554
:10376000626D22F480726265626DD00403D4626D72
:1037700042F001026265174A934204D140F22122CD
:10378000FA40D1071BD5DA68082D1BD11D60002037
:10379000BBE7721CD4D0FFF75DFFA0EB0800B0427E
:1037A00001D8002ECBD123681B682B40C7D1626D96
:1037B000032084F8503042F004026265A5E7044A11
:1037C000D268E1E75204E2D40C221A60DFE700BFBE
:1037D0000020024000210240002302400368186CD0
:1037E000704700000023F7B50193054690F850306C
:1037F0000E46012B00F0A2810122046880F85020BF
:103800002046FFF759FF002840F06C810B68C3F396
:103810001300C3F38461002868D18A40E36904F18E
:10382000300C1F2713437268900902F01F02E361F6
:1038300000F00C00974091405CF8003023EA070349
:103840000B434CF800302046FFF736FFA36803F027
:10385000080303433FD1B26820463168FFF718FFE1
:10386000B74B72691B6803F07043B3F1805FE36884
:1038700045D1C3F382035B0037699A403168042F56
:1038800045D004F1600001F0F84150F8273003F012
:1038900000430B43134340F82730727E3169571EB3
:1038A00050F821307A4223F000437A4143EAC27350
:1038B00040F82130337E316903F1FF3C226901F089
:1038C0001F01DCF1000322F4F04243EB0C03DB02A6
:1038D0008B40134323612046FFF7EAFE00283DD0CA
:1038E0000020002385F8503003B0F0BD93FAA3F315
:1038F000B3FA83F3012203F01F039A408EE713F01B
:10390000100FE368B5D05B0803F00803B4E7236E3B
:103910008A0603F0F843B3EB816F03D1236E23F0E3
:1039200000432366636E03F0F8439A4203D1636E4B
:1039300023F000436366A36E03F0F8439A4203D179
:10394000A36E23F00043A366E36E03F0F8439A42AC
:10395000C1D1E36E23F00043E366BCE7F768336848
:1039600007F0180C774AD4F8C010C3F3130022FAFA
:103970000CF221EA00011A400A43C4F8C020724A3E
:1039800097421BD1002858D19A0E0121013202F032
:103990001F079206092F70D802F0F842B940114370
:1039A000002865D19B0E013303F01F0303EB430393
:1039B0001B051943B2682046FFF76AFE3268002AE9
:1039C0008EDA62498C4200F08680614E614B62481B
:1039D000B44208BF03468C429B6802D05C498C42CB
:1039E0007BD15A48FFF764FE01465948FFF760FE55
:1039F000014377D1594803F0E071824278D118022F
:103A00003FF56EAF564B9C427FF46AAF514A9368C4
:103A100023F0E0730B4343F400039360514B524A8D
:103A20001B68B3FBF2F301335B000193019B002B96
:103A30003FF456AF019B013BF7E793FAA3F232B193
:103A4000B2FA82F2013202F01F02092A25D893FA53
:103A5000A3F2B2FA82F20132920602F0F84293FA2D
:103A6000A3F7B7FA87F70121013707F01F0795E79A
:103A700093FAA3F3B3FA83F395E702F0F842B9405F
:103A80001143D8B99B0E013303F01F0303EB43032B
:103A90001E3B1B0543F000738BE793FAA3F2B2FAC7
:103AA00082F20132920602F0F84293FAA3F7B7FAD3
:103AB00087F70121013707F01F07E0E793FAA3F228
:103AC000B2FA82F203236FF01D00013202F01F02EE
:103AD00013FB0203DDE7204B7DE72148FFF7E8FDFC
:103AE000002887D06B6D012043F020036B65F8E65A
:103AF0001E4882420FD1DA013FF5F2AE184B9C42CC
:103B00007FF4EEAE134A936823F0E0730B4343F067
:103B100080739360E4E6164882427FF4E1AE5B0274
:103B20003FF5DEAE0E4B9C427FF4DAAE094A936855
:103B300023F0E0730B4343F48003EAE70220D3E66B
:103B40000010005CFFFF0F000000FF470020024054
:103B5000002102400063025800230240000084CB91
:103B60000060025808000024400D0300000052C706
:103B70000000B8CF036870B504461846FFF79CFDF7
:103B80009A6802F00802024301D1002070BDDA6891
:103B900092013AD5A08A40F20112904235D1274ACB
:103BA00019684E0625D5402201211A601846FFF7F4
:103BB00083FD50B19A68950707D49A6822F00042B5
:103BC00022F03F0242F010029A6001291FD1042521
:103BD000FFF740FD064623689B682B42D5D0FFF7D0
:103BE00039FD801B0528F6D923689B682B42F2D04B
:103BF00001E0013AD4D1636D012043F01003636505
:103C0000A36D43F00103A365C0E70229CED19A68F2
:103C100010070AD59A68920707D49A6822F00042E2
:103C200022F03F0242F020029A60022903D00329C9
:103C3000CDD10C25CCE70825CAE700BF01DC0C007C
:103C4000026870B504461046FFF732FD08B1002047
:103C500070BD9168224B194209D0636D012043F079
:103C600010036365A36D43F00103A365F0E7936858
:103C700023F0004323F03F0343F001039360FFF779
:103C8000E9FC2268174B054617499A420ED003F10A
:103C9000C053164803F586438A4208BF03468A424A
:103CA0009B6801D1D906D2D1114E13E00F4BF6E734
:103CB0001046FFF7FDFC20B99368334043F0010341
:103CC0009360FFF7C7FC401B022803D923681B68D9
:103CD000DA07C2D522681368DB07E9D5B7E700BF6A
:103CE0003F000080002002400021024000230240EB
:103CF000C0FFFF7F3B4B70B504460068984257D029
:103D000003F1C0533849394A03F58643884208BF56
:103D100013469E68FFF7D0FC054600285FD194F853
:103D20005030012B5BD00123204684F85030FFF740
:103D300087FF002850D1636D06F01F012A4A23F443
:103D4000706323F0010343F4807363652368934237
:103D500030D189BBA2F58072656D25F4801565654B
:103D6000656D15F4805502D0A56D25F00605A56595
:103D70001C2593421D604FF0000584F8505005D07B
:103D800040F2212525FA01F1C90717D5DA68920119
:103D900005D5626D22F4405242F4805262659A6801
:103DA00022F0004222F03F0242F004029A6070BD0D
:103DB0000E4BAEE71A46CFE70A4AD1E7636D43F4EC
:103DC00080136365D3689B01F1D5636D23F4405381
:103DD00043F480536365EAE784F85050E7E7022034
:103DE000E5E700BF0020024000210240002302401E
:103DF000026838B5044610469368FFF759FC08B9C5
:103E0000002038BD9907FBD4936803F00D03012B04
:103E100019D1936823F0004323F03F0343F00203DA
:103E2000936003231360FFF715FC054623689B6826
:103E3000DB07E5D5FFF70EFC401B0228F6D9236807
:103E40009B68DA07F2D5636D012043F010036365C8
:103E5000A36D43F00103A365D3E710B590F850308C
:103E60000446012B16D00123032180F85030FFF7C0
:103E700081FE58B92046FFF7BBFF38B9636D23F4C4
:103E8000885323F0010343F001036365002384F8A2
:103E9000503010BD0220FCE738B5434A05460368A0
:103EA000934203D002F58072934224D13F4B9B682A
:103EB00013F4403F14BF01230023F3B94FF4002053
:103EC00005F048FA6B680446B3F5101F4AD03FD896
:103ED000B3F5E01F44D036D8B3F5801F08D02CD8F6
:103EE000B3F5002F04D023F40022B2F5802F16D1B1
:103EF0009B0C5B000FE02E4BD9E704F031FA6B68A6
:103F00000446B3F5003F05D0B3F5403F06D0B3F506
:103F1000803F04D11B0CB4FBF3F400E08408FFF7EE
:103F2000B1FB41F2030398422B6823D8214A944203
:103F30009A681BD942F480721AE0B3F5A01FD7D05B
:103F4000B3F5C01FD3E7B3F5001FE8D14409E6E796
:103F5000B3F5201F08D0B3F5301FE0D1040ADEE727
:103F60000409DCE78409DAE7C409D8E722F480729F
:103F70009A6038BD104A944203D89A6822F440727D
:103F8000F6E70E4A944203D89A6822F44072D1E7C9
:103F90000B4A94429A6896BF22F4407242F44072EF
:103FA00042F40072E4E700BF002002400023024018
:103FB00000630258002D310121BCBE0041787D0113
:103FC00081F0FA02002373B504460193002800F043
:103FD000F080456D25B9FEF77DFBA56584F850504E
:103FE00023689A68900005D59A6822F0204222F052
:103FF0003F029A609A68D10040F19D809A68D20091
:1040000000F1AF80626D012542F010026265A26D81
:1040100042F00102A2651846FFF74EFB626D02F006
:104020001002024340F0C180626D184622F4817292
:1040300042F002026265FFF73BFB80B95E4E5F49CA
:10404000B34202D08B4240F08E805B48FFF730FBDA
:1040500002465A48FFF72CFB024300F09280FFF71C
:1040600011FB41F20303217F9842627DA068236B1C
:1040700040F28D80102840F08A80520342EA0142CB
:104080001A4342F01C03012902BF226A02F1FF32E7
:1040900043EA4243626A22B102F47872A16A0A4397
:1040A000134322684649D068014010461943D16045
:1040B000FFF702FB936803F00803034327D1D3689B
:1040C000217D23F4804323F0030343EA8133E16A33
:1040D0000B43D36094F83830012B5ED1E36B106949
:1040E000591ED4E91036334343EA0143A16C0B4314
:1040F000344901400B4343F0010313612046136927
:10410000616B23F070430B431361FFF7C5FEE36857
:104110002268012B45D1116BA36921F00F01013BEE
:104120000B431363636D23F0030343F001036365E3
:10413000284602B070BD9A68234922F0104222F04E
:104140003F0242F080529A60204A1268B2FBF1F2BC
:1041500001320192019A002A3FF450AF019A013ACC
:10416000F7E7002557E71A48FFF7A2FA00287FF47F
:1041700076AF184A9368616823F47C130B4393600D
:104180006DE7B34201D08B42F3D1134AF2E7034308
:1041900043EA423343EA014375E7136923F001031D
:1041A000ABE7136B23F00F03BBE7636D43F0100322
:1041B00063650125BCE700BF0020024000210240EA
:1041C00003C0F0FF1EF800FC400D030008000024AF
:1041D000006002580063025800230240806800F02B
:1041E000010070478068C0F380007047002373B5FA
:1041F0000193044690F850300D461646012B3ED0F0
:10420000012380F85030FFF7F3FD636D002833D1B0
:1042100023F48853226806F0804605F4803523F0A5
:10422000020343F002036365164B91680B4033436E
:104230002B4343F0004393609368002B12DA019BF9
:10424000013301930199104B9942F5D3636D01201D
:1042500023F0120343F010036365002384F8503009
:1042600002B070BD636D23F0030343F00103636587
:10427000002384F85030F3E743F01003F7E70220FF
:10428000EEE700BFC0FFFE3F00F8C32570B590F811
:1042900050209AB003460C68012A54D001222B4EBC
:1042A00080F8502000201D681690B54217900ED15E
:1042B0002748FFF797FF06462846FFF793FF30434E
:1042C0000ED0596D104641F02001596523E0596D1B
:1042D00083F85000104641F0200159651AB070BDB6
:1042E0001C4AE4B190684E6820F44040304390602E
:1042F0002846FFF773FF05461548FFF76FFF054394
:1043000008D1896890680C4320F4716121F00F0195
:104310000C4394600020002283F85020DEE791686F
:10432000284621F440419160FFF758FF01460848B4
:10433000FFF754FF0143EDD1916821F4716121F041
:104340000F019160E6E70220C8E700BF00200240AD
:10435000002102400023024007490302CA6803F417
:10436000E06322F4E0621204120C134343F0BF63D3
:1043700043F40033CB60704700ED00E0164B30B5DE
:10438000DC68C4F30224C4F10703251D042B28BFF5
:104390000423062D4FF0FF358CBF033C002405FAA3
:1043A00003F3002805FA04F521EA030322EA0502D3
:1043B00003FA04F343EA02034FEA0313DBB206DB1A
:1043C00000F1604000F5614080F8003330BD00F03E
:1043D0000F00024A1354F9E700ED00E014ED00E08D
:1043E000002807DB0123410900F01F00024A834037
:1043F00042F82130704700BF00E100E0F0B5DFF87F
:104400007CC10468876D644545D0594DAC4242D0AB
:104410001835AC423FD01835AC423CD01835AC42D0
:1044200039D01835AC4236D01835AC4233D01835B7
:10443000AC4230D005F55675AC422CD01835AC42A4
:1044400029D01835AC4226D01835AC4223D01835C7
:10445000AC4220D01835AC421DD01835AC421AD031
:104460001835AC4217D0434DAC4214D01435AC4291
:1044700011D01435AC420ED01435AC420BD01435EB
:10448000AC4208D01435AC4205D01435AC4202D051
:104490001435AC4267D1D0E919566E60C56E15B1BE
:1044A000D0E91C566E60644537D0314DAC4234D0F3
:1044B0001835AC4231D01835AC422ED01835AC424C
:1044C0002BD01835AC4228D01835AC4225D0183541
:1044D000AC4222D005F55675AC421ED01835AC4220
:1044E0001BD01835AC4218D01835AC4215D0183551
:1044F000AC4212D01835AC420FD01835AC420CD0BB
:104500001835AC4209D01B4DAC4217D1C56D05F032
:104510001F060125B5407D6009E0C56D05F01F0649
:104520003F25B540BD60256825F480252560636082
:104530008368402B18D1A260E16014E00E4DAC42BC
:10454000E4D01435AC42E1D01435AC42DED01435A1
:10455000AC42DBD01435AC42D8D01435AC42D5D007
:104560001435AC42D2D0F0BDA160E260FBE700BFE1
:1045700028000240085402581C54025810000240FF
:104580000368024623498B4210B531D018318B4263
:104590002ED018318B422BD018318B4228D01831B5
:1045A0008B4225D018318B4222D018318B421FD03C
:1045B00018318B421CD001F556718B4218D018313E
:1045C0008B4215D018318B4212D018318B420FD04C
:1045D00018318B420CD018318B4209D018318B42E4
:1045E00006D018318B4203D023F0FF00906510BD38
:1045F000DCB218210848103CB4FBF1F101F00701CE
:104600005F2C415C23F47F7020F00300D16588BFEC
:104610000430EBE71000024048F30108026821492A
:10462000D3B28A4228D014318A4225D014318A422A
:1046300022D014318A421FD014318A421CD0143146
:104640008A4219D014318A4216D014318A4213D0CA
:104650001821103BB3FBF1F313491144A8291ED9CB
:1046600003F18052012103F01F0302F5024201FA17
:1046700003F30E4992000EE01422083B0121B3FB24
:10468000F2F303F1B05203F01F0302F5164201FAF0
:1046900003F3074992008366C0E918217047083385
:1046A000DEE700BF08540258F0FBFDBF800802405F
:1046B000805802580279511E072910B521D8036885
:1046C000134CA3421ED01434A3421BD01434A34273
:1046D00018D01434A34215D01434A34212D0143489
:1046E000A3420FD01434A3420CD01434A34209D0F7
:1046F000084B1344084A9B00C0E91B3201238B403E
:10470000436710BD054B1344054A9B00F4E700BF07
:10471000085402583F820010400902403F9600169C
:1047200040590258F8B50446FEF794FF0646002C9F
:1047300000F0EE802368834DAB426AD0824A9342F8
:1047400067D01832934264D01832934261D0183245
:1047500093425ED0183293425BD01832934258D0C5
:104760001832934255D002F55672934251D0183206
:1047700093424ED0183293424BD01832934248D0D5
:104780001832934245D01832934242D018329342A5
:104790003FD0183293423CD06C4A934240F057814C
:1047A0000222A16884F835200022402984F83420B0
:1047B000186820F4FF3020F4F87000F06681A1F151
:1047C0008002514251418903D4E90362D20842EA8E
:1047D000D602666942EAD602A66942EAD602E669CC
:1047E00042EAD602266A42EA1612024320461143E2
:1047F000574A19601A441423B2FBF3F29200E2659F
:10480000FFF7BEFEE36D03F01F02012393404360F8
:10481000B4E00222AB4284F835204FF0000284F865
:1048200034201ED0484A93421BD01832934218D0ED
:104830001832934215D01832934212D01832934254
:104840000FD0183293420CD01832934209D002F59F
:104850005672934205D01832934202D018329342D6
:10486000FFD01A6822F001021A6022681368DF077D
:1048700044D413683748A1691840D4E90236334359
:104880002669334366693343E6690B433343266A3B
:104890003343666A042E43EA000302BFD4E90B07E0
:1048A000384303432C480068000C0004B0F1005F5B
:1048B0000ED36068A0F12907052F07D93F381328C8
:1048C00006D8264F27FA00F0C00701D543F480131D
:1048D0001360042E536923F0070343EA060343D110
:1048E000A06AE66A0343002E3ED099B9012821D080
:1048F00030F0020138D1F10136D51EE0FEF7AAFEF4
:10490000801B0528B1D920236365032384F8353043
:104910000120F8BDB1F5005F22D1032824D801A100
:1049200051F820F03B490008F74800083B490008CF
:1049300035490008B6F1C07F16D1402363650123D5
:10494000E4E700BF1000024028000240085402586B
:10495000F8ABFDA73F8010FE0010005C0F030F00B6
:104960000228EAD90328C6D053612046FFF708FE83
:10497000E36D03F01F023F23934083602368AB4243
:1049800045D0454A934242D0183293423FD0183224
:1049900093423CD01832934239D01832934236D0E9
:1049A0001832934233D01832934230D002F5567207
:1049B00093422CD01832934229D01832934226D0F9
:1049C0001832934223D01832934220D018329342A7
:1049D0001DD0183293421AD01832934217D02F4A62
:1049E000934214D01432934211D0143293420ED019
:1049F000143293420BD01432934208D014329342B3
:104A000005D01432934202D01432934219D1204679
:104A10000025FFF703FEA368226E802B04BF00234E
:104A200063606368D9B2013B1160072BD4E9192197
:104A300051602CD8FFF73EFEE36E1D60D4E91C32B6
:104A40005A6000200123606584F8353061E7144A1C
:104A500093423FF4A5AE143293423FF4A1AE143218
:104A600093423FF49DAE143293423FF499AE143218
:104A700093423FF495AE143293423FF491AE143218
:104A800093423FF48DAE40233EE710219CE6C4E9FB
:104A90001B556567D5E700BF28000240085402583F
:104AA0001C54025870B5002800F00A8190F8344078
:104AB000012C00F00781012480F8344090F8354043
:104AC000012C4FF0000440F0F680022580F83550AC
:104AD0007D4D44650468AC421ED07C4EB4421BD070
:104AE0001836B44218D01836B44215D01836B4422D
:104AF00012D01836B4420FD01836B4420CD0183643
:104B0000B44209D006F55676B44205D01836B44200
:104B100002D01836B442FFD0266826F0010626607F
:104B2000FFF76CFCAC42026C53D0684B9C4250D0F7
:104B300018339C424DD018339C424AD018339C42C3
:104B400047D018339C4244D018339C4241D018338C
:104B50009C423ED003F556739C423AD018339C4297
:104B600037D018339C4234D018339C4231D018339C
:104B70009C422ED018339C422BD018339C4228D014
:104B800018339C4225D0236823F00E0343F00A0318
:104B90002360002A56D14E4B9C4227D04D4B9C425D
:104BA00024D014339C4221D014339C421ED01433A1
:104BB0009C421BD014339C4218D014339C4215D015
:104BC00014339C4212D02368002043F00103236079
:104BD00070BD236823F01E0343F0160323601AB14F
:104BE000236843F008032360AC4230D1036E1A6897
:104BF000D2035BD4C36E1BB11A6842F480721A6090
:104C0000AC42E0D0314B9C42DDD018339C42DAD02C
:104C100018339C42D7D018339C42D4D018339C42CE
:104C2000D1D018339C42CED018339C42CBD003F560
:104C300056739C42C7D018339C42C4D018339C4250
:104C4000C1D0C0E7236843F004032360A3E71F4BF0
:104C50009C42CBD018339C42C8D018339C42C5D05C
:104C600018339C42C2D018339C42BFD018339C42A8
:104C7000BCD018339C42B9D003F556739C42B5D0D2
:104C800018339C42B2D018339C42AFD018339C42A8
:104C9000ACD018339C42A9D018339C42A6D018330C
:104CA0009C42A3D018339C42A0D074E71A6842F407
:104CB00080721A609EE74FF4006380F834404365C9
:104CC000012085E7022083E710000240280002400F
:104CD000085402581C540258F8B50546FEF7BAFCB1
:104CE000074645B195F83530022B06D080236B6519
:104CF000002385F834300120F8BD2C68A94EB44259
:104D00004AD0A94B9C4247D018339C4244D0183318
:104D10009C4241D018339C423ED018339C423BD039
:104D200018339C4238D018339C4235D003F5567363
:104D30009C4231D018339C422ED018339C422BD049
:104D400018339C4228D018339C4225D018339C42FB
:104D500022D018339C421FD018339C421CD02368A9
:104D600023F00E032360914B9C421FD014339C42CE
:104D70001CD014339C4219D014339C4216D01433E7
:104D80009C4213D014339C4210D014339C420DD05B
:104D900014339C4212D109E02368B44223F01E036D
:104DA0002360636923F08003636176D12A6EB44285
:104DB000136823F48073136040F0AB80236823F002
:104DC000010323602368DB0700F1CD802B68EA6DC7
:104DD000B342A86D02F01F0200F0D18072498B42ED
:104DE00000F0CD8018318B4200F0C98018318B4221
:104DF00000F0C58018318B4200F0C18018318B4221
:104E000000F0BD8018318B4200F0B98018318B4220
:104E100000F0B58001F556718B4200F0B08018317A
:104E20008B4200F0AC8018318B4200F0A880183122
:104E30008B4200F0A48018318B4200F0A080183122
:104E40008B4200F09C8018318B4200F09880183122
:104E50008B4200F09480012101FA02F24260534A31
:104E6000934200F092801432934200F08E8014320C
:104E7000934200F08A801432934200F0868014320C
:104E8000934200F08280143293427ED014329342D7
:104E90007BD0143293427ED177E0434B9C4285D045
:104EA00018339C4282D018339C423FF47FAF1833B2
:104EB0009C423FF47BAF18339C423FF477AF1833EA
:104EC0009C423FF473AF18339C423FF46FAF03F53D
:104ED00056739C423FF46AAF18339C423FF466AF6E
:104EE00018339C423FF462AF18339C423FF45EAFEC
:104EF00018339C423FF45AAF18339C423FF456AFEC
:104F000018339C423FF452AF18339C423FF44EAFEB
:104F100029E7254B9C423FF451AF18339C423FF4A4
:104F20004DAF18339C423FF449AF18339C423FF4D5
:104F300045AF18339C423FF441AF18339C423FF4D5
:104F40003DAF18339C423FF439AF03F556739C4292
:104F50003FF434AF18339C423FF430AF18339C42D7
:104F60003FF42CAF2AE7FEF775FBC01B05287FF640
:104F700029AF20236B65032385F83530B8E63F2140
:104F8000B34201FA02F2826012D1D5E919325A60B5
:104F9000EB6E002B3BD10123002085F8353085F8DE
:104FA0003400A9E6100002402800024008540258CC
:104FB0001B4A9342E9D018329342E6D0183293420A
:104FC000E3D018329342E0D018329342DDD0183249
:104FD0009342DAD018329342D7D002F556729342F8
:104FE000D3D018329342D0D018329342CDD0183259
:104FF0009342CAD018329342C7D018329342C4D0D9
:1050000018329342C1D018329342BED027E71A68B3
:1050100022F480721A60D5E91C325A60BBE700BFE7
:105020002800024008B528B190F83530022B03D093
:105030008023436501205DE003683F4A934251D0DD
:10504000183293424ED0183293424BD018329342CA
:1050500048D01832934245D01832934242D0183289
:1050600093423FD0183293423CD002F5567293429D
:1050700038D01832934235D01832934232D0183299
:1050800093422FD0183293422CD01832934229D019
:105090001832934226D01832934223D01A6822F055
:1050A0000E021A601A6822F001021A60234A934223
:1050B00021D1026E136823F480731360D0E91613B4
:1050C00003F01F02012393404B60D0E919325A606C
:1050D000C36E2BB31A6822F480721A60D0E91C32B6
:1050E0005A601DE0042280F835201A6822F001027F
:1050F0001A60002008BD124A9342DAD0143293425B
:10510000D7D014329342D4D014329342D1D0143237
:105110009342CED014329342CBD014329342C8D0B3
:10512000012380F83530002380F83430036D002BE4
:10513000DFD09847DDE700BF100002400854025856
:105140001C54025800232DE9F34101930446294BD6
:10515000294E1F680368856DB342D5F80080D5F8E5
:1051600000C04FD0254A93424CD01832934249D0C8
:105170001832934246D01832934243D018329342A9
:1051800040D0183293423DD0183293423AD002F5C3
:105190005672934236D01832934233D0183293422B
:1051A00030D0183293422DD0183293422AD0183280
:1051B000934227D01832934224D01832934221D000
:1051C0000F4A934240F00982E16D04201A6801F011
:1051D0001F01884010EA0C0F00F02682560740F1AC
:1051E00023821104686040F11782D30300F11A8210
:1051F000A36C7EE108000024100002402800024059
:1052000008540258E26D082002F01F02904010EA94
:10521000080F3DD0B3422ED084498B422BD0183199
:105220008B4228D018318B4225D018318B4222D0A6
:1052300018318B421FD018318B421CD018318B4251
:1052400019D001F556718B4215D018318B4212D00E
:1052500018318B420FD018318B420CD018318B4251
:1052600009D018318B4206D018318B4203D0183147
:105270008B4240F0C1801968C1F3800141B11968C7
:1052800021F004011960A860616D41F001016165C0
:1052900028FA02F1C80734D5B3422ED063498B42B5
:1052A0002BD018318B4228D018318B4225D01831A1
:1052B0008B4222D018318B421FD018318B421CD028
:1052C00018318B4219D001F556718B4215D0183127
:1052D0008B4212D018318B420FD018318B420CD038
:1052E00018318B4209D018318B4206D018318B42CD
:1052F00003D018318B4240F083805969090600F1D0
:1053000081800421914011EA080F32D0B3422DD0A0
:10531000464883422AD01830834227D0183083422F
:1053200024D01830834221D0183083421ED0183048
:1053300083421BD01830834218D000F55670834248
:1053400014D01830834211D0183083420ED0183058
:1053500083420BD01830834208D01830834205D0E6
:105360001830834202D01830834253D11868800726
:1053700052D41021914011EA080F5DD0B3422DD0D4
:105380002A4A93422AD01832934227D018329342A5
:1053900024D01832934221D0183293421ED01832B2
:1053A00093421BD01832934218D002F556729342A2
:1053B00014D01832934211D0183293420ED01832C2
:1053C00093420BD01832934208D01832934205D042
:1053D0001832934202D01832934223D11A68C2F392
:1053E000C0024AB3A9601A68500340F18A801B6862
:1053F00019031DD4236C1CE01968C1F3C0013DE7FB
:1054000019687EE701219140A960616D41F00201B8
:10541000616576E71968ACE7A960616D41F0040148
:105420006165A6E71A68C2F38002DAE72800024045
:10543000A36C0BB120469847E16D202001F01F01BD
:10544000884010EA080F72D02368B3422DD08D4AED
:1054500093422AD01832934227D01832934224D054
:105460001832934221D0183293421ED01832934200
:105470001BD01832934218D002F55672934214D0C2
:105480001832934211D0183293420ED01832934200
:105490000BD01832934208D01832934205D01832FC
:1054A000934202D01832934234D11A68C2F30012E8
:1054B000002A3CD0A86094F83520042A1A682DD11F
:1054C00022F016021A605A6922F080025A61226C98
:1054D0000AB9A26C1AB11A6822F008021A603F23B6
:1054E0008B40AB60012384F83530002384F83430DE
:1054F000236D002B00F08D80204602B0BDE8F04106
:1055000018471A68D2053FF575AF1A6822F00802ED
:105510001A606FE71A68C2F34002C9E755034DD518
:105520001B68180357D4636C0BB120469847636D12
:10553000002B6ED0636DD9073ED5042384F8353037
:105540002368B3421ED04F4A93421BD01832934275
:1055500018D01832934215D01832934212D0183214
:1055600093420FD0183293420CD01832934209D094
:1055700002F55672934205D01832934202D0183287
:105580009342FFD04FF416511A68B7FBF1F122F0A5
:1055900001021A60019A01328A42019202D81A6805
:1055A000D207F7D41B68DF074CBF0323012384F81D
:1055B0003530002384F83430E36C9AE71A6812F42B
:1055C000807208D1196821F010011960012384F854
:1055D000342084F83530E36BA6E72B4A93423FF43E
:1055E000F3AD143293423FF4EFAD143293423FF4E3
:1055F000EBAD143293423FF4E7AD143293423FF4E3
:10560000E3AD143293423FF4DFAD143293423FF4E2
:10561000DBAD02B0BDE8F081970603D41A6822F032
:1056200004021A60236C64E70220884010EA0C0F21
:1056300016D0960714D56860100403D5D1030DD495
:10564000636C56E712F0200208D1196821F00A01B4
:105650001960012384F8342084F83530E36B48E77F
:105660000820884010EA0C0FD3D01207D1D51A6851
:1056700022F00E021A60012303FA01F169606365EA
:1056800095E700BF280002401C54025890F83500EE
:105690007047406D70470000F0B5D1E900670C69B4
:1056A0008D68F7B92C4344EA8644D1E90665354351
:1056B0004E693543CE6835430E6A45EA0665866E07
:1056C000D0F88400734300EB830640F823400020A9
:1056D0000F4C75600836CB890432E35C834205D8F1
:1056E000F0BD34432C4344F08044DEE712F8023C22
:1056F00012F8015C1B0443EA056312F8045C2B43B7
:1057000012F8035C43EA052333500430E3E700BF9B
:1057100050F301082DE9F04F99B004464C22CC49D2
:1057200005A819F05FFC002C00F0B381C94B22687A
:105730009A4204BF03F58073636094F8983003F0D5
:10574000FF0223B9204684F89920FDF743F8226828
:10575000936923F010039361FDF77CFF05462368EE
:105760009A69110700F186819A6942F001029A61F3
:10577000FDF770FF054623689A69D20740F18D81D5
:105780009A6942F002029A61227C012A9A690CBF4E
:1057900022F0400242F040029A61627C012A9A693A
:1057A0000CBF42F4804222F480429A61A27C012A1A
:1057B0009A690CBF22F4805242F480529A619A692D
:1057C000A06822F4407202439A619A6922F0A4020E
:1057D0009A611A6922F010021A61E268012A40F007
:1057E00063819A6942F004029A61A269B0F5407F30
:1057F00002F1FF31E26902F1FF324FEA022242EA8E
:105800004162216A01F1FF3142EA0102616901F15D
:10581000FF3142EA0142DA610ED1E26A511E226B87
:10582000013A120142EA0122A16A01390A43616A7E
:10583000013942EA0142DA60266E2EB1D3F8C02067
:10584000616E0A43C3F8C020D4F85CE0A26E16EB88
:105850000E0F01920CD018A80199D3F8C82000EBC4
:10586000810122F0070251F84C1C0A43C3F8C820FA
:10587000D4E910C20392BCF1000F0CD018A8039910
:10588000D3F8BC2000EB810122F0070251F84C1C38
:105890000A43C3F8BC20D4E91289B8F1000F0CD038
:1058A00018A9D3F8BC2001EB890122F0700251F84D
:1058B0004C1C42EA0112C3F8BC20226DD4F854B04B
:1058C000029262B118A9D3F8BC2001EB8B0122F43B
:1058D000E06251F84C1C42EA0122C3F8BC205D4A48
:1058E000934204D161688A6822F003028A60002230
:1058F000594D606BC4F89C20C4F894200122D4F860
:105900003CA084F89820D3F884202A4042EA800200
:10591000C3F88420D3F88410A26B21F47F0141EAFC
:105920000241C3F884108118D3F8887000F18050C8
:105930002F4000F52C5047EA810701EB4A01C3F8DC
:1059400088708000D3F8887027F4FE0747EA0A477A
:10595000C3F88870D3F8A0702F4047EA8107C3F8D6
:10596000A070D3F8A07027F4FE0747EA0C47C3F8ED
:10597000A070039F07FB0CFCD3F8B07061442F406C
:1059800047EA8107C3F8B070D3F8B07027F4FE0778
:1059900047EA0847C3F8B07009FB08F7D3F8AC80B2
:1059A00001EB070908EA0508029948EA89080BFB98
:1059B00001FBC3F8AC80D3F8F08009EB0B01D4F8FD
:1059C000589008EA050848EA810801EB4901C3F844
:1059D000F080D3F8F08028F47C1848EA0948C3F82E
:1059E000F080D3F8C08008EA050848EA8101C3F8CE
:1059F000C010D3F8C01021F47C1141EA0E41C3F865
:105A0000C010D3F8C01021F07C5141EA0661C3F800
:105A1000C01000EB8203019A236703EBCA0302FB69
:105A20000EFE636703EB8C035643A36703EB870308
:105A3000E066E36703EB8B03C4F8803003EBC90334
:105A4000C4F8843003EB8E0303EB860606E000BF48
:105A5000B0F0010800A000400300FFFFC4F8883048
:105A6000204BC4F890609E4235D9D4F89C3043F066
:105A7000200309E0FDF7EEFD401B0A287FF66FAE1C
:105A8000D4F89C3043F00103C4F89C30032384F81D
:105A90009830012019B0BDE8F08FFDF7DBFD401B09
:105AA0000A287FF668AEEBE7002A3FF49EAE022A92
:105AB0000AD09969032A41F080019961196941F07E
:105AC000100119617FF491AE9A6942F020028BE6D1
:105AD000002340F8043BD4F890309842F8D30020DB
